:100000000C94C3040C94EB040C94EB040C94EB04DC
:100010000C94EB040C94EB040C94EB040C94EB04A4
:100020000C94EB040C94EB040C94B3080C9422098C
:100030000C94EB040C94EB040C94EB040C94EB0484
:100040000C94EB040C94EB040C94EB040C94EB0474
:100050000C94650C0C94540B0C94EB040C946908F0
:100060000C94EB040C94EB040C94EB040C94EB0454
:100070000C94EB040C94260C0C94EB040C94EB0401
:100080000C94EB040C94EB040C94EB040C94EB0434
:100090000C94850B0C94EB040C94EB040C94EB0483
:1000A0000C94EB040C94EB040C94EB04070605048D
:1000B0000100080A0B0C0D09080B000202020000E7
:1000C00009040000010202000005240010010524BB
:1000D000010101042402060524060001070581032D
:1000E00010004009040100020A0000000705020296
:1000F00040000007058302400000040309041201C8
:100100000002EF0201404123378000010102030198
:1001100041726475696E6F204C4C43004172647586
:10012000696E6F204D6963726F000000000025004A
:1001300028002B002E0031000000000024002700C2
:100140002A002D0030000404040404030405020204
:100150000202040302020202060606060606040460
:1001600002020204040408020110408040102040F2
:10017000804080080204018040201002011080109D
:1001800020404020808080808080808080808080AF
:10019000808080808080808080808080808080805F
:1001A000808080808080808080808080808181814C
:1001B000818181818181818181818181818182822D
:1001C000828282828282828282828283838383830A
:1001D00083838383838384848484848484848484E5
:1001E00085858585858585858586868686868686B8
:1001F0008687878787878787888888888888888888
:100200008989898989898A8A8A8A8A8A8A8B8B8B51
:100210008B8B8B8C8C8C8C8C8C8D8D8D8D8D8E8E18
:100220008E8E8E8E8F8F8F8F8F90909090909191D9
:100230009191919292929292939393939394949496
:100240009494959595959696969696979797979850
:1002500098989898999999999A9A9A9A9B9B9B9B06
:100260009C9C9C9C9D9D9D9D9E9E9E9E9F9F9F9FB6
:10027000A0A0A0A0A1A1A1A1A2A2A2A3A3A3A3A464
:10028000A4A4A4A5A5A5A6A6A6A6A7A7A7A8A8A80E
:10029000A8A9A9A9AAAAAAAAABABABACACACACADB5
:1002A000ADADAEAEAEAFAFAFB0B0B0B0B1B1B1B258
:1002B000B2B2B3B3B3B4B4B4B5B5B5B5B6B6B6B7F8
:1002C000B7B7B8B8B8B9B9B9BABABABBBBBBBCBC96
:1002D000BCBDBDBDBEBEBEBFBFBFC0C0C0C1C1C131
:1002E000C2C2C2C3C3C4C4C4C5C5C5C6C6C6C7C7C7
:1002F000C7C8C8C8C9C9C9CACACBCBCBCCCCCCCD5E
:10030000CDCDCECECFCFCFD0D0D0D1D1D1D2D2D3F0
:10031000D3D3D4D4D4D5D5D5D6D6D7D7D7D8D8D883
:10032000D9D9DADADADBDBDBDCDCDDDDDDDEDEDE13
:10033000DFDFE0E0E0E1E1E2E2E2E3E3E3E4E4E5A1
:10034000E5E5E6E6E7E7E7E8E8E8E9E9EAEAEAEB2F
:10035000EBECECECEDEDEDEEEEEFEFEFF0F0F1F1BC
:10036000F1F2F2F3F3F3F4F4F5F5F5F6F6F6F7F748
:10037000F8F8F8F9F9FAFAFAFBFBFCFCFCFDFDFED3
:10038000FEFEFFFF0000000101010202030303045F
:1003900004050505060607070708080909090A0AEA
:1003A0000A0B0B0C0C0C0D0D0E0E0E0F0F10101077
:1003B0001111121212131313141415151516161702
:1003C000171718181819191A1A1A1B1B1C1C1C1D90
:1003D0001D1D1E1E1F1F1F2020202121222222231F
:1003E00023242424252525262627272728282829AD
:1003F000292A2A2A2B2B2B2C2C2C2D2D2E2E2E2F3E
:100400002F2F3030303131323232333333343434D1
:1004100035353636363737373838383939393A3A64
:100420003A3B3B3B3C3C3D3D3D3E3E3E3F3F3F40FB
:100430004040414141424242434343444444454594
:10044000454646464747474848484949494A4A4A2F
:100450004A4B4B4B4C4C4C4D4D4D4E4E4E4F4F4FCF
:100460004F50505051515152525253535353545470
:100470005455555555565656575757575858585915
:100480005959595A5A5A5B5B5B5B5C5C5C5C5D5DBD
:100490005D5E5E5E5E5F5F5F5F6060606061616168
:1004A0006162626262636363636464646465656518
:1004B00065666666666767676767686868686969CA
:1004C00069696A6A6A6A6A6B6B6B6B6B6C6C6C6C81
:1004D0006C6D6D6D6D6E6E6E6E6E6E6F6F6F6F6F3D
:1004E00070707070707171717171717272727272FC
:1004F00073737373737374747474747475757575BE
:100500007575757676767676767677777777777788
:100510007778787878787878797979797979797954
:100520007A7A7A7A7A7A7A7A7A7B7B7B7B7B7B7B24
:100530007B7B7B7C7C7C7C7C7C7C7C7C7C7C7D7DFC
:100540007D7D7D7D7D7D7D7D7D7D7D7E7E7E7E7ED6
:100550007E7E7E7E7E7E7E7E7E7E7E7E7F7F7F7FB7
:100560007F7F7F7F7F7F7F7F7F7F7F7F7F7F7F7F9B
:100570007F7F7F7F7F7F7F7F7F7F7F7F7F7F7F7F8B
:100580007F7F7F7F7F7F7F7F7F7F7F7F7F7F7F7F7B
:100590007F7F7F7F7F7F7F7F7F7F7F7F7F7F7F7F6B
:1005A0007F7F7F7F7F7F7F7F7F7F7F7F7F7F7E7E5D
:1005B0007E7E7E7E7E7E7E7E7E7E7E7E7E7E7D7D5D
:1005C0007D7D7D7D7D7D7D7D7D7D7D7C7C7C7C7C60
:1005D0007C7C7C7C7C7C7B7B7B7B7B7B7B7B7B7B65
:1005E0007A7A7A7A7A7A7A7A7A7979797979797972
:1005F0007978787878787878777777777777777782
:100600007676767676767575757575757574747497
:1006100074747473737373737372727272727171B0
:100620007171717170707070706F6F6F6F6F6E6ECF
:100630006E6E6E6D6D6D6D6D6C6C6C6C6C6B6B6BF2
:100640006B6B6A6A6A6A6A69696969686868686717
:100650006767676766666666656565656464646442
:100660006363636362626262616161616060606072
:100670005F5F5F5F5E5E5E5E5D5D5D5C5C5C5C5BA4
:100680005B5B5B5A5A5A59595959585858575757DA
:100690005756565655555555545454535353535213
:1006A00052525151515050504F4F4F4F4E4E4E4D50
:1006B0004D4D4C4C4C4B4B4B4A4A4A4A4949494890
:1006C00048484747474646464545454444444343D2
:1006D000434242424141414040403F3F3F3E3E3E17
:1006E0003D3D3D3C3C3C3B3B3A3A3A393939383860
:1006F00038373737363636353534343433333332AA
:10070000323231313030302F2F2F2E2E2E2D2D2CF6
:100710002C2C2B2B2B2A2A2A292928282827272743
:100720002626252525242424232322222222212192
:1007300020201F1F1F1E1E1D1D1D1C1C1C1B1B1AE5
:100740001A1A191918181817171716161515151437
:100750001413131312121211111010100F0F0E0E8A
:100760000E0D0D0C0C0C0B0B0A0A0A0909090808DE
:100770000707070606050505040403030302020133
:100780000101000000FFFFFEFEFEFDFDFCFCFCFB86
:10079000FBFAFAFAF9F9F8F8F8F7F7F6F6F6F5F5DC
:1007A000F5F4F4F3F3F3F2F2F1F1F1F0F0EFEFEF2F
:1007B000EEEEEEEDEDECECECEBEBEAEAEAE9E9E883
:1007C000E8E8E7E7E7E6E6E5E5E5E4E4E3E3E3E2D6
:1007D000E2E2E1E1E0E0E0DFDFDEDEDEDDDDDDDC28
:1007E000DCDBDBDBDADADAD9D9D8D8D8D7D7D7D679
:1007F000D6D5D5D5D4D4D4D3D3D3D2D2D1D1D1D0C8
:10080000D0D0CFCFCFCECECDCDCDCCCCCCCBCBCB13
:10081000CACAC9C9C9C8C8C8C7C7C7C6C6C6C5C560
:10082000C5C4C4C4C3C3C2C2C2C1C1C1C0C0C0BFA9
:10083000BFBFBEBEBEBDBDBDBCBCBCBBBBBBBABAF0
:10084000BAB9B9B9B8B8B8B7B7B7B6B6B6B5B5B535
:10085000B5B4B4B4B3B3B3B2B2B2B1B1B1B0B0B075
:10086000B0AFAFAFAEAEAEADADADACACACACABABB4
:10087000ABAAAAAAAAA9A9A9A8A8A8A8A7A7A7A6EF
:10088000A6A6A6A5A5A5A4A4A4A4A3A3A3A3A2A227
:10089000A2A1A1A1A1A0A0A0A09F9F9F9F9E9E9E5C
:1008A0009E9D9D9D9D9C9C9C9C9B9B9B9B9A9A9A8C
:1008B0009A999999999898989898979797979696BA
:1008C00096969695959595949494949493939393E2
:1008D0009392929292929191919191909090909006
:1008E0008F8F8F8F8F8E8E8E8E8E8E8D8D8D8D8D28
:1008F0008C8C8C8C8C8C8B8B8B8B8B8B8A8A8A8A46
:100900008A8A8A898989898989898888888888885A
:10091000888787878787878786868686868686866E
:10092000858585858585858585848484848484847E
:100930008484848383838383838383838383828286
:10094000828282828282828282828281818181818C
:10095000818181818181818181818181808080808B
:100960008080808080808080808080808080808087
:100970008080808080808080808080808080808077
:1009800080808080B20C11241FBECFEFDAE0DEBF82
:10099000CDBF11E0A0E0B1E0E8E9F3E202C00590CC
:1009A0000D92A832B107D9F724E0A8E2B1E001C066
:1009B0001D92A834B207E1F714E0C3ECD4E004C000
:1009C0002197FE010E94C411C23CD107C9F70E94C1
:1009D000250D0C94CA110C940000EEE6F1E0249170
:1009E000EFE4F1E08491882399F090E0880F991F5B
:1009F000FC01E85CFE4FA591B491FC01E65DFE4F61
:100A0000859194918FB7F894EC91E22BEC938FBF82
:100A10000895FC0180919501882311F13FB7F89466
:100A200082E08093E9002091F200822F90E0181676
:100A3000190614F481E090E0882339F0289A44E6FE
:100A4000409394014091F1004083222339F020919A
:100A5000F200211103C02BE62093E8003FBF089568
:100A60008FEF9FEF08952FB7F89483E08093E9000C
:100A70009091E800892F807295FF04C09091F20058
:100A800080E4891B2FBF089580918C0181110DC0D6
:100A900082E08093880184E08093890110928B0129
:100AA00010928A0181E080938C0188E891E008959A
:100AB0003FB7F8948091840190918501A0918601BF
:100AC000B091870126B5A89B05C02F3F19F001966C
:100AD000A11DB11D3FBFBA2FA92F982F8827BC0198
:100AE000CD01620F711D811D911D42E0660F771FC0
:100AF000881F991F4A95D1F70895CF92DF92EF9200
:100B0000FF920E9458056B017C010E9458056C19E8
:100B10007D098E099F09683E734081059105A8F300
:100B2000FF90EF90DF90CF90089540916901509130
:100B30006A01209167013091680142175307B4F4AC
:100B40009091E8009570E1F39091E80092FD19C052
:100B50008093F1008091690190916A0101968F73F1
:100B60009927892B19F48EEF8093E8008091690111
:100B700090916A01019690936A018093690181E0E6
:100B8000089580E00895EF92FF920F931F93CF9303
:100B9000DF93F82E192FE62E042F81E0860F880FA1
:100BA0000E94950583E00E949505CF2DD12FEC0E74
:100BB000FD2EF11CCE15DF05B9F007FF13C0FE01B5
:100BC00084910E949505182F80E00E94950581234D
:100BD00021968111EFCFDF91CF911F910F91FF905F
:100BE000EF9008958881EDCF81E0F5CFDF92EF920D
:100BF000FF920F931F93CF93DF93D82E8A01EB01BF
:100C00007B01E40EF51ECE15DF0559F0D7FE12C0AC
:100C1000FE0184910E94950521968111F4CF0FEF7A
:100C20001FEFC801DF91CF911F910F91FF90EF90BF
:100C3000DF9008958881EECF0F931F93CF93DF93BA
:100C40001F92CDB7DEB782E0898342E450E068EBC3
:100C500070E080E80E94F6050E944405DC011296CF
:100C60000D911C910115110589F0D801ED91FC91B0
:100C70000280F381E02DBE016F5F7F4FC8010995AF
:100C800097FD04C0F80100851185ECCF89810F9094
:100C9000DF91CF911F910F910895615030F0209115
:100CA000F100FC0120830196F8CF289A84E6809316
:100CB000940108958F929F92AF92BF92CF92DF924C
:100CC000EF92FF920F931F93CF93DF936C017B0101
:100CD0008A0180910B01882309F458C08091950105
:100CE000882309F453C080916D0180FF05C0809175
:100CF000E00082608093E000E801B12C8AEFA82E2A
:100D000093E0892E2AE3922E209711F4BB20B9F1AB
:100D10000E943305811106C0AA94AA20B9F10E944D
:100D20007D05F2CF8C171D0611F00CF08C2F9FB7AC
:100D3000F8948092E9002091E80025FD02C09FBF51
:100D4000E3CF282F30E0C21BD30BF701815020F0F6
:100D500041914093F100FACFE20EF31EBB2021F047
:100D60009092E800B12CEBCF8091E80085FDE7CFB1
:100D70009092E800BB24B394209709F3F3CF5D9AD7
:100D800084E680936C01101611063CF081E090E03F
:100D9000F6019383828310E000E0C801DF91CF91D8
:100DA0001F910F91FF90EF90DF90CF90BF90AF9089
:100DB0009F908F900895CF93DF931F92CDB7DEB7AA
:100DC0006983DC01ED91FC910280F381E02D41E02B
:100DD00050E0BE016F5F7F4F09950F90DF91CF917B
:100DE000089583E08093E9008091F200882319F050
:100DF0008AE38093E80008950E94330590E0089507
:100E0000CF93DF931F92CDB7DEB7FC018485958524
:100E100097FD08C02FEF3FEF358724870F90DF91B4
:100E2000CF910895CE0101960E940905019719F40A
:100E3000898190E0F3CF8FEF9FEFF0CF0F931F9357
:100E4000CF93DF931F92CDB7DEB78C01FC01848571
:100E5000958597FF0BC0CE0101960E940905019769
:100E600071F4898190E0F80195878487F801848581
:100E700095850F90DF91CF911F910F9108958FEF7E
:100E80009FEFF1CFFC018485958597FD0BC09FB73F
:100E9000F89482E08093E9008091F2009FBF90E097
:100EA000019608959FB7F89482E08093E9008091BD
:100EB000F2009FBF90E0089584E0809342018FEF9D
:100EC00080934301109265011092640110926601B3
:100ED00085EE8093BC00089582E0809342018FEFFD
:100EE00080934301109265018093640181E08093B7
:100EF000660185EE8093BC00089585ED8093BC006B
:100F00008091BC0084FDFCCF80914201809341011F
:100F10001092420180914101833011F40C945C07DE
:100F200080914101813011F40C946C070895E82FF1
:100F3000F0E0E455FF4FE4918091F2019091F301CC
:100F40008B3091054CF401969093F3018093F2015C
:100F50008A519E4FDC01EC93F0E0EE0FFF1FE75D3E
:100F6000FE4F808191810895CF93DF931F92CDB77B
:100F7000DEB78091F2019091F3018F3F980751F114
:100F8000FC01EA51FE4F2081298301979093F301E0
:100F90008093F201898180930D0180910D018F3F33
:100FA000A9F080910D0120917B00982F990F990F46
:100FB00090722F7D922B90937B008770806480933A
:100FC0007C0080917A00806480937A000F90DF919A
:100FD000CF9108958FEFDFCF0F931F93DC014D91D9
:100FE0005D916D917C91139714960D911D912D91AA
:100FF0003C911797400F511F621F731F4D935D93D4
:101000006D937C931397CB0197701896ED91FC919B
:10101000E80FF91F84911F910F9108958F929F926D
:10102000AF92BF92CF92DF92EF92FF92FC0180814C
:10103000918122813381861797070CF042C071831A
:101040006083CB01821B930B95838483C680D780FA
:101050000D2C000CEE08FF0882809380092C000CF8
:10106000AA08BB0820853185032E000C440B550BC4
:101070002C193D094E095F09072E000C880B990BAE
:10108000681979098A099B090E94A511208131817B
:10109000032E000C440B550B281939094A095B092A
:1010A0000E94A60FDA01C9018C0D9D1DAE1DBF1D4A
:1010B000FF90EF90DF90CF90BF90AF909F908F9078
:1010C00008956217730714F673836283861B970B68
:1010D000BBCF1F920F920FB60F9211242F933F9305
:1010E0008F939F93AF93BF938091800190918101E3
:1010F000A0918201B091830130917F0123E0230F01
:101100002D3758F50196A11DB11D20937F018093C5
:10111000800190938101A0938201B093830180911B
:10112000840190918501A0918601B091870101967B
:10113000A11DB11D8093840190938501A093860128
:10114000B0938701BF91AF919F918F913F912F9164
:101150000F900FBE0F901F90189526E8230F029650
:10116000A11DB11DD2CF1F920F920FB60F92112465
:101170008F939F938091E1009091E100937F9093F2
:10118000E10083FF0FC01092E90091E09093EB0023
:101190001092EC0092E39093ED001092950198E08C
:1011A0009093F00082FF22C093E09093E900909129
:1011B000F200992319F09AE39093E80090916C0162
:1011C000992341F090916C01915090936C01911191
:1011D00001C05D9890919401992341F09091940100
:1011E000915090939401911101C0289884FF18C0E8
:1011F0008091E2008E7E81608093E2008091E10028
:101200008F7E8093E10080916D018E7E806180935E
:101210006D019F918F910F900FBE0F901F901895A9
:1012200080FFF7CF8091E2008E7E80618093E200A4
:101230008091E1008E7E8093E10080916D018E7E31
:101240008160E5CF1F920F920FB60F921124CF92BB
:10125000DF92EF92FF920F931F932F933F934F9341
:101260005F936F937F938F939F93AF93BF93EF930E
:10127000FF93CF93DF93CDB7DEB76C97DEBFCDBFC3
:101280001092E9008091E80083FF25C068E0CE015C
:1012900045960E944D0682EF8093E8008D8987FF76
:1012A00039C09091E80090FFFCCF982F907609F01C
:1012B00034C19E894F89588D2F89F88C911131C086
:1012C000803861F580916E018093F1001092F100F9
:1012D0008EEF8093E8006C960FB6F894DEBF0FBED9
:1012E000CDBFDF91CF91FF91EF91BF91AF919F91D2
:1012F0008F917F916F915F914F913F912F911F91AE
:101300000F91FF90EF90DF90CF900F900FBE0F9056
:101310001F9018959EEF9093E800C7CF1092F100B0
:10132000D5CF913059F48111D3CF4130510581F699
:1013300080916E018D7F80936E01CACF933049F406
:101340008111C6CF4130510519F680916E0182603E
:10135000F2CF953041F48091E80080FFFCCF206807
:101360002093E300B5CF963009F0A9C00B8D1C8DFA
:1013700022E01092E90010926A0110926901F212C3
:101380002EC010926801109267010E941C061F82F5
:1013900099E09983FA8291E09E8390EA98879AEF88
:1013A00099872091690130916A01275F3F4F3C8303
:1013B0002B838D831092E90010926A0110926901CB
:1013C000109368010093670149E050E0BE016F5F30
:1013D0007F4F80E00E94F6050E941C0679CF109393
:1013E0006801009367010E944405DC0112960D918B
:1013F0001C910115110509F451C1D801ED91FC9121
:101400000480F581E02DBE016B5E7F4FC801099518
:10141000009709F03EC1F80100851185EACFF3E09D
:10142000FF120EC08F89882309F440C0823061F416
:1014300040E86DE08CE191E00E94C305811148CF46
:1014400081E28093EB0047CF813029F440E86BE0E4
:1014500080E191E0F1CF833099F70E944405DC01EF
:101460001296ED90FC908E010F5F1F4F6801E11402
:10147000F10479F0D701ED91FC910680F781E02D20
:10148000B801C7010995080F111DF701E084F18427
:10149000EECFD8011C92F60101900020E9F73197B8
:1014A000BF016C197D0940E0C601C6CF6AEF70E04C
:1014B000FB01449150E080E80E94F60509CF973087
:1014C00009F4BECF983021F481E08093F10000CF81
:1014D000993009F0FDCE837009F0B2CFEFE0F1E072
:1014E00081E031E096E32191222371F08093E900BD
:1014F0003093EB00DF0111972C912093EC00909337
:10150000ED008F5F873079F78EE78093EA001092C5
:10151000EA008F8980939501DBCE8B8D9C8D109294
:10152000E90010926A01109269019093680180931A
:101530006701898D811192C08E899D89913A49F404
:10154000813209F07DCF47E050E064E071E080E057
:10155000B3CF913209F074CF833269F48F89988DBB
:10156000B0E0A0E08093000190930101A0930201FC
:10157000B0930301ADCE803269F48091E80082FF20
:10158000FCCF67E084E091E00E944D068BEF8093F2
:10159000E8009ECE823209F09BCE8F8980930B01AA
:1015A000EEEFFFE7859194918B3F9C4D51F1E0E088
:1015B000F8E08091040190910501A0910601B0919D
:1015C0000701803B9440A105B105F1F480910B0126
:1015D00080FD1AC0EE3F8AE0F80789F587E797E7B4
:1015E000918380838091600080936B0188E19BE010
:1015F0000FB6F894A895809360000FBE909360009A
:1016000067CEEEEFFAE0D5CF80819181873797479B
:1016100009F05ECEA895809160008861809360009B
:1016200080916B0180936000EE3F2AE0F20789F021
:101630008091FE0A9091FF0A9183808349CE808138
:1016400091818737980751F29093FF0A8093FE0AA1
:10165000C5CF1092FF0A1092FE0A3ACE0E944405AE
:10166000DC0112960D911C910115110509F4E8CECB
:10167000D801ED91FC910190F081E02DBE016B5EEF
:101680007F4FC8010995811123CEF801008511858E
:10169000EBCF181619060CF41BCED2CEF1E0FF12D8
:1016A000BECE6EEF70E004CF78941F920F920FB60B
:1016B0000F9211242F933F934F935F936F937F93D8
:1016C0008F939F93AF93BF93CF93DF93EF93FF934A
:1016D000CEE6D0E01882F0E0E0E00995F894888149
:1016E00082608883FF91EF91DF91CF91BF91AF919D
:1016F0009F918F917F916F915F914F913F912F912A
:101700000F900FBE0F901F9018951F920F920FB65B
:101710000F9211242F933F934F935F936F937F9377
:101720008F939F93AF93BF93EF93FF938091B900F3
:10173000887F883209F44DC008F5803109F441C032
:10174000B0F4882309F47FC08830D9F1FF91EF917C
:10175000BF91AF919F918F917F916F915F914F91C9
:101760003F912F910F900FBE0F901F9018958831C9
:1017700081F1803259F78093430120C0803409F40D
:101780004DC0B0F48033B9F3883301F7809343013F
:1017900085EC8093BC0080914201809341011092BE
:1017A000420180914101833029F50E945C07CECF30
:1017B000803541F18835D1F1883441F60E947D07AA
:1017C000C5CF809166018093BB0085EC8093BC00FF
:1017D000BDCF9091650180916401981778F7E091F1
:1017E000650181E08E0F80936501F0E0EC5BFE4FB8
:1017F0008081E9CF80914101813009F0A7CF0E941B
:101800006C07A4CFE091650181E08E0F80936501A4
:101810008091BB00F0E0EC5BFE4F8083909165010E
:1018200080916401981788F285E8D0CFE091650136
:1018300081E08E0F809365018091BB00F0E0EC5B4E
:10184000FE4F8083BBCF10924301B8CF1F920F92FF
:101850000FB60F9211242F933F934F935F936F9383
:101860007F938F939F93AF93BF93EF93FF93809159
:101870000C018823C1F080917A00806480937A0003
:1018800010920C01FF91EF91BF91AF919F918F91B9
:101890007F916F915F914F913F912F910F900FBE6C
:1018A0000F901F9018958091780090917900E091A9
:1018B0000D01EE0FFF0BE75DFE4F918380830E94C9
:1018C000B40781E080930C01DDCF1F920F920FB619
:1018D0000F9211242F933F938F939F93AF93BF93B6
:1018E000EF93FF938091280191E08927809328014D
:1018F000882359F18091F403E82FF0E0EE0FFF1FE9
:10190000EC50FE4F208131818F5F8093F403811171
:1019100018C08091F60389278093F6038091F8031D
:101920009091F903A091FA03B091FB030196A11DD8
:10193000B11D8093F8039093F903A093FA03B09339
:10194000FB033093890020938800FF91EF91BF91B2
:10195000AF919F918F913F912F910F900FBE0F905C
:101960001F901895E6E9F1E01382128288EE93E069
:10197000A0E0B0E084839583A683B78389E191E0FA
:10198000918380838FEF9FEF958784879093F301F6
:101990008093F2011092F4031092F5031092F60373
:1019A0001092F7038CEC9CE09093470480934604DC
:1019B000E8E3F4E0118210828FEF93E09383828357
:1019C0001582148222E130E03783268328E730E055
:1019D00031872087EEE2F4E01182108293838283C4
:1019E0001582148244E853E05783468340E951E06E
:1019F00051874087E4E2F4E011821082938382836E
:101A0000158214823783268321E030E031872087D6
:101A1000EAE1F4E0118210829383828315821482BA
:101A20003783268384E190E09187808784E891E082
:101A3000909319048093180490930F0480930E04DC
:101A400090930504809304040895789484B582608B
:101A500084BD84B5816084BD85B5826085BD85B552
:101A6000816085BD80916E00816080936E001092D0
:101A7000810080918100826080938100809181004B
:101A800081608093810080918000816080938000DC
:101A9000809191008260809391008091910081609B
:101AA000809391008091900081608093900080915C
:101AB000C10084608093C1008091C10082608093E6
:101AC000C1008091C10081608093C1008091C300FA
:101AD00081608093C3008091C00082608093C000C9
:101AE0008091C20081608093C20080917A008460FE
:101AF00080937A0080917A00826080937A0080914E
:101B00007A00816080937A0080917A008068809367
:101B10007A001092950110926E0110926D018091E1
:101B2000D70081608093D70080EA8093D80089B580
:101B3000806189BD89B5826089BD09B400FEFDCF91
:101B40000E947D058091D8008F7C80618093D800B1
:101B50008091E000807F8093E0008091E1008E7EA4
:101B60008093E1008DE08093E200559A209A5D9881
:101B700028988FEF9FEF9093A3018093A20180910B
:101B80007A00886080937A0080917A0084608093E4
:101B90007A0080917A008D7F80937A0080917A001C
:101BA0008E7F80937A0090E080E061E070E0209189
:101BB0007E00AB01082E01C0440F0A94EAF7242BE3
:101BC00020937E0001968C30910589F710927E015A
:101BD00010927D0180E091E090937C0180937B01E5
:101BE000809180008091810080918800909189008F
:101BF00080916F000E94ED041092740198E190931F
:101C0000750182E08093760190938100809380003B
:101C100088EE91E0A0E0B0E0C1E0C0937101909344
:101C2000700180936F01909387008093860089E113
:101C3000809381000E94ED04809180009091760154
:101C4000892B80688093800020916F013091700112
:101C5000A4EFB0E00E94FA0FBAE0969587957795C9
:101C60006795BA95D1F77093890060938800809149
:101C7000750190917101892B80938100C0936F0051
:101C800011E00CE0C0E0D0E0BB24B3949091F503E8
:101C90008091F403981306C09091F7038091F603A6
:101CA000981348C180917D0190917E01009709F0C1
:101CB00047C180917B0190917C0190937E0180933C
:101CC0007D0183E00E949707BC018AE194E00E94B5
:101CD0000E087C0180E00E9497076C0184E00E945E
:101CE0009707BC018AE194E00E940E083C01B6010E
:101CF00088E394E00E940E08AC01092E000C660BEC
:101D0000770BEDE0440F551F661F771FEA95D1F75B
:101D100040931404509315046093160470931704B1
:101D2000089F9001099F300D11242E9DC0012F9D09
:101D3000900D3E9D900D1124092E000CAA0BBB0B9B
:101D4000FDE0880F991FAA1FBB1FFA95D1F780935A
:101D50000A0490930B04A0930C04B0930D0481E04B
:101D60000E949707BC018EE294E00E940E089C013D
:101D7000D3010E94B5116B017C018CEF93E00E94AE
:101D8000EC07A82F880FBB0BA058BF4FA7019601E7
:101D90000E94D00F672F782F892F992787FD9A955A
:101DA00060937701709378018093790190937A0121
:101DB00082E00E949707BC0184E294E00E940E0832
:101DC000BC01990F880B990B0E94AC1020E030E009
:101DD0004AE754E40E94091020E030E040E055E476
:101DE0000E94381120E030E040E85CE30E943811A6
:101DF00020E030E040E857E40E9438110E947B1058
:101E00006093000470930104809302049093030490
:101E100080910D018F3F21F40E94B407B0920C0114
:101E200040904204509043046090440470904504F4
:101E3000BB2777FCBA95A72D962D852D209177018C
:101E4000309178014091790150917A01281B390B2A
:101E50004A0B5B0BA0914604B09147040E94C50F4A
:101E6000C72ED82EE92EFF24E7FCFA94C40CD51C0B
:101E7000E61CF71CC0924204D0924304E092440452
:101E8000F092450486E094E00E94EC074090100434
:101E90005090110460901204709013044091140447
:101EA000509115046091160470911704440E551E4C
:101EB000661E771E40921004509211046092120424
:101EC000709213045527F7FC5A954F2D3E2D2D2D5A
:101ED000A82F880FBB0B0E94D00F4BE0660F771F17
:101EE000881F991F4A95D1F7460E571E681E791E06
:101EF000C3019770E0911804F0911904E80FF91FDD
:101F0000E4918091F503A82FB0E0AA0FBB1FAC505D
:101F1000BE4F0E2E000CFF0BEC50FF4FED93FC93C9
:101F20008F5F8093F503811105C08091F7038127AE
:101F30008093F703209709F4A9CE0E940000A6CE53
:101F4000019790937E0180937D016ACF052E97FBC8
:101F50001EF400940E94BD0F57FD07D00E94D80FB9
:101F600007FC03D04EF40C94BD0F5095409530956E
:101F700021953F4F4F4F5F4F0895909580957095F5
:101F800061957F4F8F4F9F4F08950E94FA0FA59F35
:101F9000900DB49F900DA49F800D911D1124089564
:101FA000B7FF0C94C50F0E94C50F821B930B0895B9
:101FB000A1E21A2EAA1BBB1BFD010DC0AA1FBB1F4D
:101FC000EE1FFF1FA217B307E407F50720F0A21BBF
:101FD000B30BE40BF50B661F771F881F991F1A942C
:101FE00069F760957095809590959B01AC01BD0156
:101FF000CF010895A29FB001B39FC001A39F700DB0
:10200000811D1124911DB29F700D811D1124911D00
:1020100008950E941D100C94FE100E94F71058F0B5
:102020000E94F01040F029F45F3F29F00C94E71073
:1020300051110C9432110C94ED100E940F1168F3A1
:102040009923B1F3552391F3951B550BBB27AA2771
:1020500062177307840738F09F5F5F4F220F331FAB
:10206000441FAA1FA9F335D00E2E3AF0E0E832D073
:1020700091505040E695001CCAF72BD0FE2F29D076
:10208000660F771F881FBB1F261737074807AB0748
:10209000B0E809F0BB0B802DBF01FF2793585F4FBD
:1020A0003AF09E3F510578F00C94E7100C943211F1
:1020B0005F3FE4F3983ED4F3869577956795B7959F
:1020C000F7959F5FC9F7880F911D9695879597F9AA
:1020D0000895E1E0660F771F881FBB1F6217730723
:1020E0008407BA0720F0621B730B840BBA0BEE1F38
:1020F00088F7E09508950E94171188F09F5798F08F
:10210000B92F9927B751B0F0E1F0660F771F881FFC
:10211000991F1AF0BA95C9F714C0B13091F00E9416
:102120003111B1E008950C943111672F782F882771
:10213000B85F39F0B93FCCF3869577956795B3953D
:10214000D9F73EF490958095709561957F4F8F4FAC
:102150009F4F0895E89409C097FB3EF490958095B1
:10216000709561957F4F8F4F9F4F9923A9F0F92F5D
:1021700096E9BB279395F695879577956795B795DB
:10218000F111F8CFFAF4BB0F11F460FF1BC06F5FC1
:102190007F4F8F4F9F4F16C0882311F096E911C0D3
:1021A000772321F09EE8872F762F05C0662371F0F4
:1021B00096E8862F70E060E02AF09A95660F771F08
:1021C000881FDAF7880F9695879597F9089597F9FC
:1021D0009F6780E870E060E008959FEF80EC0895CD
:1021E00000240A94161617061806090608950024F6
:1021F0000A9412161306140605060895092E039470
:10220000000C11F4882352F0BB0F40F4BF2B11F4E3
:1022100060FF04C06F5F7F4F8F4F9F4F089557FD42
:102220009058440F551F59F05F3F71F04795880F44
:1022300097FB991F61F09F3F79F0879508951216DB
:1022400013061406551FF2CF4695F1DF08C0161687
:1022500017061806991FF1CF869571056105089438
:102260000895E894BB2766277727CB0197F908954F
:102270000E944B110C94FE100E94F01038F00E9446
:10228000F71020F0952311F00C94E7100C94ED104A
:1022900011240C9432110E940F1170F3959FC1F319
:1022A000950F50E0551F629FF001729FBB27F00D04
:1022B000B11D639FAA27F00DB11DAA1F649F662759
:1022C000B00DA11D661F829F2227B00DA11D621FA8
:1022D000739FB00DA11D621F839FA00D611D221F62
:1022E000749F3327A00D611D231F849F600D211D46
:1022F000822F762F6A2F11249F5750409AF0F1F0C9
:1023000088234AF0EE0FFF1FBB1F661F771F881F31
:1023100091505040A9F79E3F510580F00C94E71072
:102320000C9432115F3FE4F3983ED4F38695779591
:102330006795B795F795E7959F5FC1F7FE2B880FD7
:10234000911D9695879597F90895DB018F939F933B
:102350000E94C50FBF91AF91A29F800D911DA39FB9
:10236000900DB29F900D112408950E94FA0F33230F
:1023700012F48A1B9B0B0C94BF110E94FA0FB7FF3B
:102380000895821B930B0895EE0FFF1F0590F491A3
:08239000E02D0994F894FFCF41
:10239800FFFFFFFF00E100000000000001FF00C197
:1023A800808100000000000000DB065A06FC06F1F0
:0823B80006420700071E0700A2
:00000001FF
