:100000000C945D000C9481080C949E080C9485005F
:100010000C9485000C9485000C9485000C9485004C
:100020000C9485000C9485000C9485000C9485003C
:100030000C9485000C9485000C9485000C9485002C
:100040000C94BB080C9485000C94C40A0C94850095
:100050000C9485000C9485000C9485000C9485000C
:100060000C9485000C948500000024272A000025AC
:10007000282B000023262904040404040404040299
:100080000202020202030303030303010204081035
:100090002040800102040810200102040810200002
:1000A0000000070002010000030406000000000039
:1000B00000000000440668073D0611241FBECFEF74
:1000C000D4E0DEBFCDBF11E0A0E0B1E0E2E7F9E1AE
:1000D00002C005900D92AC38B107D9F712E0ACE838
:1000E000B1E001C01D92A934B107E1F710E0C8EBFF
:1000F000D0E004C02297FE010E94A80CC43BD107A7
:10010000C9F70E9461070C94AC0C0C940000CF93CB
:10011000DF93BC018230910510F462E070E0A091A1
:100120004702B0914802ED01E0E0F0E040E050E02D
:1001300021C0888199818617970769F48A819B81FC
:10014000309719F09383828304C090934802809380
:100150004702FE0134C06817790738F4411551058C
:1001600019F08417950708F4AC01FE018A819B8180
:100170009C01E9012097E9F641155105A9F1CA0151
:10018000861B970B049708F4BA01E0E0F0E02AC060
:100190008D919C91119784179507F9F46417750751
:1001A00081F412968D919C911397309719F0938357
:1001B000828304C09093480280934702FD013296E7
:1001C0004CC0CA01861B970BFD01E80FF91F619314
:1001D000719302978D939C9340C0FD01828193811E
:1001E0009C01D9011097A1F6809145029091460299
:1001F000892B41F480916C0190916D01909346029E
:100200008093450240916E0150916F014115510557
:1002100041F44DB75EB780916A0190916B01481B24
:10022000590B2091450230914602CA01821B930B63
:100230008617970780F0AB014E5F5F4F84179507D5
:1002400050F0420F531F5093460240934502F9016C
:100250006193719302C0E0E0F0E0CF01DF91CF91B4
:100260000895CF93DF93009709F450C0EC012297D3
:100270001B821A82A0914702B0914802109709F19F
:1002800040E050E0AC17BD0708F1BB83AA83FE0134
:1002900021913191E20FF31FAE17BF0779F48D91D1
:1002A0009C911197280F391F2E5F3F4F3983288368
:1002B00012968D919C9113979B838A8341155105CA
:1002C00071F4D0934802C093470220C012968D91DA
:1002D0009C911397AD01009711F0DC01D3CFFA0187
:1002E000D383C28321913191E20FF31FCE17DF0731
:1002F00069F488819981280F391F2E5F3F4FFA01D9
:10030000318320838A819B8193838283DF91CF9184
:100310000895FC01118210821382128215821482C8
:1003200017821682693018F088E0808701C06087E4
:10033000208B483078F481E090E002C0880F991F4C
:100340004A95E2F781878BE290E0938782878AE281
:1003500090E029C04E3098F4242F30E028503040EF
:1003600081E090E002C0880F991F2A95E2F781870B
:1003700085E290E09387828784E290E014C0443164
:10038000A8F4242F30E02E50304081E090E002C0ED
:10039000880F991F2A95E2F7818788E290E093877A
:1003A000828787E290E09587848708951586148672
:1003B000138612860895EF92FF920F931F93CF93A7
:1003C000DF93EC017B01642F122F402F21E00E946C
:1003D0008901198F1A8E90E041E050E016C0E92F94
:1003E000F0E0D701AE0FBF1FEC0FFD1F8C91818B8A
:1003F000AC91A63048F49A0102C0220F331FAA958F
:10040000E2F78A8D822B8A8F9F5F8885981738F351
:100410008FEF93E09F878E87DF91CF911F910F9190
:10042000FF90EF9008950F930E94DB010F910895C4
:10043000CF92DF92EF92FF920F931F93CF93DF93B0
:10044000EC018B01D0907C00E0907A00C7B0F8B04E
:1004500080917A0086FDFCCF90E009C0E92FF0E0A2
:10046000EE0FFF1FE00FF11F118210829F5F888542
:100470009817A0F397B18A8D8095982397B998B172
:10048000892388B987E880937A0050E024C0FE0170
:10049000E40FF11D818980937C0080917A00806453
:1004A00080937A0080917A0086FDFCCFE42FF0E003
:1004B000EE0FFF1FE00FF11F2091780030917900BF
:1004C00080819181820F931F918380834F5F888504
:1004D0004817E8F25F5F898D581710F040E017C0A9
:1004E00040E0F5CFE42FF0E0EE0FFF1FE00FF11F2B
:1004F000698D862F90E09595879520813181820FB7
:10050000931F70E00E94420C718360834F5F888567
:10051000481740F3D0927C00E0927A00F8B8C7B850
:10052000DF91CF911F910F91FF90EF90DF90CF90CF
:100530000895CF93DF93EC018A819B81009711F09E
:100540000E9431018E819F81009711F00E9431013C
:1005500088819981009711F00E9431018C819D81E1
:10056000009711F00E943101DF91CF9108958F9291
:100570009F92AF92BF92CF92DF92EF92FF920F9332
:100580001F93CF93DF93EC015B0119A50AA58BA400
:1005900090E009C0E92FF0E0EE0FFF1FEA0DFB1D10
:1005A000118210829F5F88859817A0F384B139A5C6
:1005B000832B84B987B12AA5822B87B98AB19BA5E1
:1005C000892B8AB985B1832B85B988B1822B88B9EB
:1005D0008BB1892B8BB98AE090E00E94550984B1D8
:1005E00039A53095832384B987B12AA52095822324
:1005F00087B98AB19BA5909589238AB985B138239B
:1006000035B988B1282328B98BB198239BB990902C
:10061000B000C090B1008091B00083608093B000C2
:1006200082E08093B100D090B20060E070E03AC008
:100630005091B2005D19650F711DE3B0E11609F02C
:100640004FC0F6B0F01609F04BC089B1881509F01B
:1006500047C025C0A42FB0E09D01220F331F8501A4
:10066000020F131FF80180819181892BA1F42C0FB7
:100670003D1FF901818D928DFC01208130E0AC0F8E
:10068000BD1F51968C9190E028233923232B19F418
:10069000F801718360834F5F88854817D8F2D50EC3
:1006A0001E2D0F2D8E859F856817790708F2909271
:1006B000B000C092B10020E00FC0E22FF0E0EE0FDA
:1006C000FF1FEA0DFB1D80819181892B21F48E850E
:1006D0009F85918380832F5F8885281770F305C0DD
:1006E000E3B0F6B089B040E0D7CFDF91CF911F9152
:1006F0000F91FF90EF90DF90CF90BF90AF909F90C1
:100700008F900895BF92CF92DF92EF92FF920F9356
:100710001F93DF93CF93CDB7DEB760970FB6F894F2
:10072000DEBF0FBECDBF8C017B01D42E842F815044
:100730008230B0F4D8011C96ED91FC911D97309752
:1007400079F0808119969C911997892B80831A964C
:10075000ED91FC911B97808119969C91892B808348
:10076000F8018089882339F5C02EB12EB701C80160
:100770000E94B702D8011C96ED91FC911D9730970D
:1007800081F0808119969C911997892B80831A9604
:10079000ED91FC911B97908119968C9180958923FE
:1007A0008083B2E0DB1609F04EC0BE016F5F7F4F61
:1007B0008C2D9B2D22C0B701C8010E941802D801C0
:1007C0001C96ED91FC911D97309781F080811996D0
:1007D0009C911997892B80831A96ED91FC911B9718
:1007E000908119968C91809589238083B2E0DB16E5
:1007F00051F5BE016F5F7F4FC8010E94B70240E014
:10080000BE016F5F7F4F1AC0E42FF0E0EE0FFF1FB5
:100810006701CE0EDF1EE60FF71FD8011E962D9141
:100820003C911F9780819181281B390BF6018081B3
:100830009181820F931F918380834F5FD801189617
:100840008C91481708F360960FB6F894DEBF0FBE80
:10085000CDBFCF91DF911F910F91FF90EF90DF906F
:10086000CF90BF9008959F92AF92BF92CF92DF92A8
:10087000EF92FF920F931F93CF93DF93EC01162F0C
:10088000072F942E22E0421711F0442351F48C815B
:100890009D81892B09F4A4C08E819F81892B09F445
:1008A0009FC0892D8150823050F488819981892B95
:1008B00009F496C08A819B81892B09F491C0492D46
:1008C000612F702FCE010E948203812F902F9C01F7
:1008D0005901CC24DD2400E010E07CC081E09816B2
:1008E00069F4EA81FB81E00FF11F20813181E88109
:1008F000F981E00FF11F408151813DC0AC81BD8184
:10090000992059F4EE81FF81E00FF11F20813181A0
:10091000A00FB11F4D915C912EC0A00FB11F8D9102
:100920009C91E881F981E00FF11F20813181EE85F2
:10093000FF858217930710F4AF0105C0A9014E0F80
:100940005F1F481B590BEE81FF81E00FF11F608193
:100950007181EA81FB81E00FF11F80819181EE8539
:10096000FF856817790710F49F0105C09C012E0FC1
:100970003F1F261B370B7901E41AF50A01F1F50137
:100980006081718180E090E09A0140E050E0621B5C
:10099000730B840B950B28EE33E040E050E00E948F
:1009A000230C970140E050E00E948B0CC901F3E05A
:1009B000293E3F0714F088EE93E097FF02C080E0E5
:1009C00090E0F501819391935F010894C11CD11CC3
:1009D0000E5F1F4F888590E0C816D9060CF47ECFB5
:1009E000DF91CF911F910F91FF90EF90DF90CF900B
:1009F000BF90AF909F9008952F923F924F925F9239
:100A00006F927F928F929F92AF92BF92CF92DF921E
:100A1000EF92FF920F931F93DF93CF9300D000D0FC
:100A2000CDB7DEB78C01F62EE72E2A830E94330461
:100A3000D8011896BC91B9832F2D3E2DC9018C0188
:100A4000552444246624772443011C821B82AA2453
:100A5000BB24650188EE282E83E0382E32C0F801D1
:100A6000E080F180FA81FF2321F091012E193F09E6
:100A7000790139ECE316F10414F04424439483E340
:100A8000E816F1049CF0B701882777FD8095982F30
:100A9000A60195010E94230C660E771E881E991EE2
:100AA000AB81BC81AE0DBF1DBC83AB83539488EE7C
:100AB00093E0A0E0B0E0A80EB91ECA1EDB1E0E5FD8
:100AC0001F4F9981591658F2442021F5692F70E083
:100AD00084EF91E0DC016A9FC0016B9F900D7A9FCB
:100AE000900D1124845F914020918C0130918D01F3
:100AF000281739071CF440E050E01AC088EE93E054
:100B0000689FA001699F500D789F500D1124485E89
:100B100053400EC0EB81FC819F0140E050E0C401D6
:100B2000B3010E94690CA90130938D0120938C01BF
:100B3000CA010F900F900F900F90CF91DF911F91EE
:100B40000F91FF90EF90DF90CF90BF90AF909F906C
:100B50008F907F906F905F904F903F902F9008956F
:100B6000FC0110828FEF81830895CF93DF93EC0116
:100B7000FB01CB010997029710F080E054C0CA0135
:100B800060E170E00E94560C6A83C90160E170E088
:100B90000E94560C6B83E8838FEF898360E08E2F71
:100BA0000E94BB0961E088810E949D0980918E01AD
:100BB000882311F580918F018823F1F42FB7F894E1
:100BC00082E0809380008AE18093810088EB9BE043
:100BD000909389008093880090938B0080938A0083
:100BE00080E49CE9909387008093860080916F0059
:100BF000887F80936F002FBF8881893041F481E026
:100C000080938E01809180008F73806809C08A3044
:100C100049F481E080938F01809180008F7C806215
:100C20008093800081E0DF91CF91089520E639E044
:100C300040E252E00E94B50508950F93813091057E
:100C400089F46F5F7F4FB9F480E991E00E94B005AD
:100C50000FEF24E045E060E871E084E991E00E9454
:100C6000130209C0892B39F46F5F7F4F21F484E9A7
:100C700091E00E9499020F9108956FEF7FEF80E05D
:100C800090E00E941D0608956FEF7FEF81E090E0F5
:100C90000E941D06089560E0809170010E94BB09CA
:100CA00061E0809172010E94BB0908950F931F9328
:100CB0000FEA11E040E855E260E070E0C8010E94F0
:100CC000730760E080917C010E949D0960E0809143
:100CD0007C010E94BB0961E080917E010E949D0918
:100CE00061E0809170010E949D0961E08091720134
:100CF0000E949D0961E0809174010E949D0961E05C
:100D0000809176010E949D0961E0809178010E94A6
:100D10009D0961E080917A010E949D0961E08091C6
:100D200074010E94BB0961E080917A010E94BB09B5
:100D300069E070E080E991E00E9416066DE271E0E2
:100D4000C8010E94A7076BE371E0C8010E94A707D2
:100D500068EE73E080E090E00E942B0968EE73E09B
:100D600080E090E00E942B0961E0809170010E9478
:100D7000BB0960E0809172010E94BB0968EE73E0DC
:100D800080E090E00E942B090E944B0668EE73E021
:100D900080E090E00E942B0968EE73E080E090E034
:100DA0000E942B0968EE73E080E090E00E942B091E
:100DB0001F910F91089561E080917E010E949D092D
:100DC00060E080917E010E94BB0982E090E00E9479
:100DD000550961E080917E010E94BB0985E090E0A9
:100DE0000E94550960E080917E010E94BB0960E08D
:100DF00080917E010E949D0961E080917E010E94A8
:100E0000BB0920E432E44FE050E061E080917E01D4
:100E10000E94060A0E94950B20E53DE848E652E450
:100E20000E94010B0E94690B9B01AC01CA0108954D
:100E3000CF92DF92EF92FF920F931F93DF93CF93A6
:100E4000CDB7DEB72A970FB6F894DEBF0FBECDBF81
:100E50000E94DB067B018C018FEAC82E81E0D82E30
:100E600062E571E0C6010E94A707B701C6010E94B2
:100E700071086AEF70E080E090E00E942B0920E0AA
:100E800041E0BE016F5F7F4F84E991E00E94FC0466
:100E90008C016FE571E0C6010E947807B801C601B8
:100EA0000E9471082A960FB6F894DEBF0FBECDBF20
:100EB000CF91DF911F910F91FF90EF90DF90CF9036
:100EC00008950E9463090E9456060E941807FDCFEC
:100ED00089E891E09093B0018093AF010895862F47
:100EE0000E94BC0A0895CB01BA010E94830A0895AA
:100EF0000F931F93CF93DF938C01EB0109C02196D1
:100F0000D801ED91FC910190F081E02DC801099587
:100F100068816623A1F7DF91CF911F910F9108950A
:100F20000F931F938C01DC01ED91FC910190F081F6
:100F3000E02D6DE00995D801ED91FC910190F081D3
:100F4000E02D6AE0C80109951F910F9108950F9354
:100F50001F938C010E947807C8010E9490071F917F
:100F60000F9108952F923F924F925F926F927F92CE
:100F70008F929F92AF92BF92CF92DF92EF92FF92A9
:100F80000F931F93DF93CF93CDB7DEB7A0970FB624
:100F9000F894DEBF0FBECDBF1C016A017B01411575
:100FA00051056105710549F4DC01ED91FC91019059
:100FB000F081E02D60E3099554C088249924540100
:100FC000422E55246624772401E010E00C0F1D1FEB
:100FD000080D191DC701B601A30192010E94690CF9
:100FE000F80160830894811C911CA11CB11CC701ED
:100FF000B601A30192010E94690CC901DA016C01DA
:101000007D01C114D104E104F104F1F681E0E82E80
:10101000F12CEC0EFD1EE80CF91C3E010894611C3D
:10102000711CD501C4010197A109B1096C01C8184F
:10103000D90814C0F601EE0DFF1D60816A3010F46E
:10104000605D01C0695CD101ED91FC910190F0817E
:10105000E02DC10109950894E108F1086E147F04A0
:1010600049F7A0960FB6F894DEBF0FBECDBFCF9163
:10107000DF911F910F91FF90EF90DF90CF90BF9085
:10108000AF909F908F907F906F905F904F903F9028
:101090002F900895EF92FF920F931F93CF93DF93BA
:1010A000EC017A018B0177FF0FC0E881F981019093
:1010B000F081E02D6DE2099510950095F094E09493
:1010C000E11CF11C011D111D2AE0B801A701CE0190
:1010D0000E94B207DF91CF911F910F91FF90EF9087
:1010E00008950F931F938C01AB01662757FD609500
:1010F000762F0E944A08C8010E9490071F910F9105
:1011000008951F920F920FB60F9211248F939F9301
:10111000EF93FF938091B1019091B201892B29F057
:10112000E091B101F091B2010995FF91EF919F918A
:101130008F910F900FBE0F901F9018951F920F92D6
:101140000FB60F9211248F939F93EF93FF9380918B
:10115000B3019091B401892B29F0E091B301F09192
:10116000B4010995FF91EF919F918F910F900FBE60
:101170000F901F9018951F920F920FB60F92112487
:101180002F938F939F93AF93BF938091B5019091CD
:10119000B601A091B701B091B8010196A11DB11D92
:1011A0008093B5019093B601A093B701B093B801B5
:1011B0008091B9019091BA01A091BB01B091BC019D
:1011C0008050904CAF4FBF4F8093B9019093BA01BC
:1011D000A093BB01B093BC0127C08091B90190914D
:1011E000BA01A091BB01B091BC0180589E43A040C0
:1011F000B0408093B9019093BA01A093BB01B09322
:10120000BC018091BD019091BE01A091BF01B09140
:10121000C0010196A11DB11D8093BD019093BE0137
:10122000A093BF01B093C0018091B9019091BA0120
:10123000A091BB01B091BC0181589E43A040B04039
:1012400060F6BF91AF919F918F912F910F900FBE3C
:101250000F901F901895EF92FF920F931F937B01B1
:101260008C018FB7F8944091BD015091BE016091FF
:10127000BF017091C0018FBF2FB7F8948091BD015D
:101280009091BE01A091BF01B091C0012FBF841BFE
:10129000950BA60BB70BE816F9060A071B0760F7B4
:1012A0001F910F91FF90EF900895019759F0FC0165
:1012B000EE0FFF1FEE0FFF1F32978FB7F894319795
:1012C000F1F78FBF0895789484B5826084BD84B5AA
:1012D000816084BD85B5826085BD85B5816085BD31
:1012E000EEE6F0E0808181608083E1E8F0E08081DB
:1012F00082608083808181608083E0E8F0E080818B
:1013000081608083E1EBF0E0808184608083E0EBAA
:10131000F0E0808181608083EAE7F0E08081846092
:1013200080838081826080838081816080838081EE
:10133000806880831092C1000895282F30E0C90191
:1013400085579F4FFC01949129583F4FF901849193
:10135000882381F0E82FF0E0E859FF4FE491F0E0B6
:10136000662329F480819095892380830895808164
:10137000892B80830895482F50E0CA0181569F4FE2
:10138000FC012491CA0185579F4FFC019491495853
:101390005F4FFA0134913323C1F1222331F123301D
:1013A00021F4809180008F7705C0243031F4809142
:1013B00080008F7D8093800018C0213019F484B59F
:1013C0008F7704C0223021F484B58F7D84BD0DC099
:1013D000263021F48091B0008F7705C0273029F4A2
:1013E0008091B0008F7D8093B000E32FF0E0E3594F
:1013F000FF4FE491F0E0662329F4808190958923E2
:10140000808308958081892B80830895EF92FF92D5
:101410000F931F93A82FB0E0CD0185579F4FFC017C
:101420007491A958BF4FFD018491662311F490E097
:1014300001C0972F6FEFE62E6FEFF62E6FEF062F9E
:101440006FE0162FE222F3220423152320E030E080
:1014500040E050E0E82FF0E0EE58FF4F8491A82FD5
:10146000B0E00AC02E153F054007510709F440C0FF
:101470002F5F3F4F4F4F5F4F8C918723891791F319
:101480000AC02E153F054007510791F12F5F3F4FCE
:101490004F4F5F4F03C08491A82FB0E08C918723FA
:1014A000891779F720E030E040E050E08491E82FA0
:1014B000F0E004C02F5F3F4F4F4F5F4F8081872385
:1014C0008917C1F3CA01B9012AE030E040E050E0D9
:1014D0000E94230C9B01AC01205F3F4F4F4F5F4F99
:1014E00084E056954795379527958A95D1F704C09E
:1014F00020E030E040E050E0B901CA011F910F91B7
:10150000FF90EF900895EF92FF920F931F937B014E
:101510008C0122E030E040E050E00E948B0C205C27
:101520003D4B404F5F4FCA01B901A80197010E948E
:101530008B0CC901DA010197A109B109292F3A2FB2
:101540004B2F552747FD5A950196A11DB11D20939C
:10155000C50081508093C400E1ECF0E0808180619F
:1015600080838081886080838081806880831F91F0
:101570000F91FF90EF900895982F8091C00085FF04
:10158000FCCF9093C60008951F920F920FB60F9252
:1015900011242F933F934F935F936F937F938F9378
:1015A0009F93AF93BF93EF93FF934091C600E09159
:1015B000C101F091C201CF01019660E870E00E9484
:1015C000560C9C018091C3019091C40128173907E2
:1015D00039F0EB53FE4F40833093C2012093C10199
:1015E000FF91EF91BF91AF919F918F917F916F91FB
:1015F0005F914F913F912F910F900FBE0F901F90D1
:1016000018950CD0E6C0DED040F0D5D030F021F4F3
:101610005F3F19F0C7C0511110C1CAC0EBD098F399
:101620009923C9F35523B1F3951B550BBB27AA2763
:1016300062177307840738F09F5F5F4F220F331FD5
:10164000441FAA1FA9F333D00E2E3AF0E0E830D0A1
:1016500091505040E695001CCAF729D0FE2F27D0A4
:10166000660F771F881FBB1F261737074807AB0772
:10167000B0E809F0BB0B802DBF01FF2793585F4FE7
:101680002AF09E3F510568F08DC0D7C05F3FECF354
:10169000983EDCF3869577956795B795F7959F5FAC
:1016A000C9F7880F911D9695879597F90895E1E000
:1016B000660F771F881FBB1F621773078407BA075F
:1016C00020F0621B730B840BBA0BEE1F88F7E095BA
:1016D000089598D088F09F5790F0B92F9927B75167
:1016E000A0F0D1F0660F771F881F991F1AF0BA95E6
:1016F000C9F712C0B13081F09FD0B1E008959CC00D
:10170000672F782F8827B85F39F0B93FCCF38695DB
:1017100077956795B395D9F73EF490958095709538
:1017200061957F4F8F4F9F4F0895E89409C097FBB5
:101730003EF490958095709561957F4F8F4F9F4FA8
:101740009923A9F0F92F96E9BB279395F6958795EC
:1017500077956795B795F111F8CFFAF4BB0F11F4AF
:1017600060FF1BC06F5F7F4F8F4F9F4F16C0882356
:1017700011F096E911C0772321F09EE8872F762F8C
:1017800005C0662371F096E8862F70E060E02AF0CD
:101790009A95660F771F881FDAF7880F96958795B9
:1017A00097F9089597F99F6780E870E060E00895E1
:1017B0009FEF80EC089500240A9416161706180669
:1017C0000906089500240A94121613061406050645
:1017D0000895092E0394000C11F4882352F0BB0FD6
:1017E00040F4BF2B11F460FF04C06F5F7F4F8F4F39
:1017F0009F4F089557FD9058440F551F59F05F3F74
:1018000071F04795880F97FB991F61F09F3F79F022
:1018100087950895121613061406551FF2CF4695A4
:10182000F1DF08C0161617061806991FF1CF869526
:101830007105610508940895E894BB27662777270A
:10184000CB0197F90895629FD001739FF001829FA9
:10185000E00DF11D649FE00DF11D929FF00D839F3F
:10186000F00D749FF00D659FF00D9927729FB00DDC
:10187000E11DF91F639FB00DE11DF91FBD01CF01EF
:1018800011240895AA1BBB1B51E107C0AA1FBB1F4F
:10189000A617B70710F0A61BB70B881F991F5A95FC
:1018A000A9F780959095BC01CD01089597FB092E6D
:1018B00007260AD077FD04D0E5DF06D000201AF411
:1018C000709561957F4F0895F6F7909581959F4F9C
:1018D0000895A1E21A2EAA1BBB1BFD010DC0AA1F71
:1018E000BB1FEE1FFF1FA217B307E407F50720F089
:1018F000A21BB30BE40BF50B661F771F881F991F04
:101900001A9469F760957095809590959B01AC014C
:10191000BD01CF01089597FB092E05260ED057FD76
:1019200004D0D7DF0AD0001C38F45095409530958C
:1019300021953F4F4F4F5F4F0895F6F79095809553
:10194000709561957F4F8F4F9F4F0895EE0FFF1F4A
:101950000590F491E02D099410E0C8EBD0E004C0AC
:10196000FE010E94A80C2296CA3BD107C9F7F89441
:02197000FFCFA7
:1019720063616C6962726174696E672050495220BA
:1019820073656E736F7220002E00646F6E65005374
:10199200656E736F72204163746976650043616C92
:1019A200696272617465205049520043616C6962D8
:1019B20072617465204C696E652053656E736F7237
:1019C20073005374617274204C6F6F703A20005030
:1019D2006F736974696F6E3A20002000490200003B
:1019E2000500040003000D000C000B0008000A00B3
:0C19F2000001020304000000006F070069
:00000001FF
