:100000000C94FA000C9422010C9422010C9422010D
:100010000C9422010C9422010C9422010C942201D4
:100020000C9422010C9422010C9422010C94EC0CEF
:100030000C94E2100C9422010C9422010C942201E5
:100040000C94D2120C9422010C94BC130C94220137
:100050000C9422010C9422010C9422010C94220194
:100060000C9422010C942201746F6F206D616E79E3
:10007000206F70656E2066696C6573006261642034
:10008000696E707574005941414B00594545454BA7
:100090000053616D706C65207261746520746F6FC0
:1000A0002068696768210000436F6D707265737323
:1000B000696F6E206E6F7420737570706F727465E7
:1000C00064006661696C656420746F2067657420E4
:1000D0006E657720636C7573746572002021212131
:1000E0002000203F3F3F2000204E6F74206120768B
:1000F000616C6964205741560020436F756C646ED3
:100100002774206F70656E2066696C6500202D3E37
:1001100020007469636B7370657273616D203D209C
:1001200000706F74203D20000A0D506C6179696E7B
:1001300067200046696C657320666F756E643A00CF
:1001400046696C657320666F756E643A00436F751F
:100150006C646E2774206F70656E20646972004352
:100160006F756C646E2774206F70656E2066696CA5
:1001700065737973004E6F20706172746974696F72
:100180006E21004361726420696E69742E2066617D
:10019000696C6564210000000000240027002A002B
:1001A00000000000250028002B00000000002300B4
:1001B00026002900040404040404040402020202C8
:1001C000020203030303030301020408102040801A
:1001D000010204081020010204081020000000079A
:1001E00000020100000304060000000000000000FF
:1001F0003C11051511241FBECFEFD4E0DEBFCDBFEB
:1002000011E0A0E0B1E0E4E3FEE202C005900D924F
:10021000A832B107D9F714E0A8E2B1E001C01D92FD
:10022000AB37B107E1F711E0C4EFD1E004C022978A
:10023000FE010E941417C03FD107C9F70E94CB12DC
:100240000C9418170C940000FB01DC018D910190B7
:1002500080190110D9F3990B0895FB01DC0141507D
:10026000504030F08D910190801919F40020B9F7B9
:10027000881B990B0895FB01DC014150504048F068
:1002800001900D920020C9F701C01D9241505040CD
:10029000E0F708950895CB010E9461030895FC01E1
:1002A000848195810E94AA040895EF92FF920F9392
:1002B0001F93CF93DF93EB018A0179010BC0C70134
:1002C000B8010E942401009729F4CE010E94AA04DB
:1002D00081E006C0CE01B7010E94B304882379F7FC
:1002E000DF91CF911F910F91FF90EF900895EF92C2
:1002F000FF920F931F93DF93CF93CDB7DEB768972D
:100300000FB6F894DEBF0FBECDBF8C017E010894FE
:10031000E11CF11C97010E945501882319F420E08B
:1003200030E005C0C801B7010E9489089C01C901DD
:1003300068960FB6F894DEBF0FBECDBFCF91DF91A8
:100340001F910F91FF90EF900895FC01AB01648124
:100350007581828193810E9477010895EF92FF92C7
:100360000F931F93DF93CF93CDB7DEB768970FB688
:10037000F894DEBF0FBECDBF8B01FC018481958157
:100380007E010894E11CF11CB7010E94B30488238C
:1003900049F0C801B7014CE050E00E943B01F80170
:1003A000148681E068960FB6F894DEBF0FBECDBF0D
:1003B000CF91DF911F910F91FF90EF900895EF92F1
:1003C000FF920F931F93DF93CF93CDB7DEB768975C
:1003D0000FB6F894DEBF0FBECDBF8C01FC01828149
:1003E00093817E010894E11CF11CB7010E94530522
:1003F000F80182819381B7010E943A07F801958341
:10040000848320E0892B09F021E0822F68960FB6C3
:10041000F894DEBF0FBECDBFCF91DF911F910F913A
:10042000FF90EF9008950F931F938C01FC01808142
:1004300091810E946405F8019383828320E0892BD7
:1004400009F021E0822F1F910F9108950F93CF9310
:10045000DF93EC0181E59AE06BE07BE040E050E067
:1004600020E030E000E00E94C70899838883892B50
:1004700069F481E59AE06BE07BE040E050E020E049
:1004800030E00FEF0E94C7089983888320E08881BD
:100490009981892B09F021E0822FDF91CF910F9173
:1004A00008950E94F9090895DC018C91853E39F187
:1004B000882329F1F90120813181828193812817D4
:1004C000390799F444835583668377831B968C910F
:1004D0001B978F3011F080E205C08C918295880FB8
:1004E000807E805E808780E008951B968C918F309F
:1004F00031F02F5F3F4F3183208381E0089581E009
:1005000008950F931F93CF93DF938C01FC0180819B
:10051000853E09F48CC0882309F489C0E9018C89DF
:100520009D89AE89BF890097A105B10521F44C8B47
:100530005D8B6E8B7F8B209709F479C001151105B7
:1005400009F475C0F8018081882309F470C083859F
:100550008F3011F481E06CC0A801D80180E090E0F8
:10056000282F3C91303251F0FE01E80FF91F308303
:100570002F5F019611968830910591F7888185301B
:1005800011F485EE8883F80180858032B1F0FE0198
:10059000E20FF11D8EE28083822F8F5F2C5FFA01C4
:1005A0009085903249F0FE01E80FF11D90838F5F36
:1005B0004F5F5F4F821799F7282FFE01E20FF11D61
:1005C0001082F80183858D87938D80E0228D30E045
:1005D000822B932B9F878E87258D30E040E050E063
:1005E000542F432F322F2227868D90E0A0E0B0E0D9
:1005F000DC0199278827282B392B4A2B5B2B848DEC
:1006000090E0A0E0B0E0282B392B4A2B5B2B878DA4
:1006100090E0A0E0B0E0B82FAA2799278827282BE0
:10062000392B4A2B5B2B288B398B4A8B5B8B80E0D9
:10063000DF91CF911F910F910895DF93CF9300D059
:10064000CDB7DEB7DC010097A1F16230710588F10A
:10065000ED91FC911197660F771F80E090E0169660
:100660002D913D914D915C911997620F731F841FDD
:10067000951F0190F081E02DAE014F5F5F4F22E0AA
:1006800030E009958823A9F09A8180E0298130E043
:10069000282B392B2115310571F08FEF273F3807B3
:1006A00041F0C9014096079720F08FEF283F3807A7
:1006B00010F020E030E0C9010F900F90CF91DF9152
:1006C0000895FC01009711F01182108208952F9275
:1006D0003F924F925F926F927F928F929F92AF92D2
:1006E000BF92CF92DF92EF92FF920F931F93DF930F
:1006F000CF93CDB7DEB72C970FB6F894DEBF0FBE01
:10070000CDBF3C0178876F835A874987009709F4EA
:1007100002C1672B09F4FFC0452B09F4FCC0DC01C2
:100720005A96AD90BD90CD90DC905D9752962D91EC
:100730003D914D915C915597E985FA85CF01A0E0F7
:10074000B0E08A0D9B1DAC1DBD1D281739074A0757
:100750005B0740F4B9016A197B097A876987672BBF
:1007600009F4DCC0D301ED91FC9111972089318906
:100770003A8329835E966D917C915F977C876B8726
:10078000C901A0E0B0E08B839C83AD83BE83672B5F
:10079000E1F5F3010088F189E02DFC87EB87EF2B71
:1007A00039F4A114B104C104D10409F4B7C0B3C031
:1007B000A114B104C104D10441F1860175012B805B
:1007C0003C804D805E805094409430942094211C55
:1007D000311C411C511C10C0D3018D919C916B8523
:1007E0007C850E941D039C878B87892B09F493C00D
:1007F000E20CF31C041D151D6B817C818D819E8193
:10080000E616F7060807190738F7C601B5012B8168
:100810003C814D815E810E94D5162B0189849A848A
:10082000D301ED91FC91A980BA80A418B5088A146F
:100830009B0408F45401C080D180720100E010E0F4
:1008400086899789A08DB18DE80EF91E0A1F1B1F9E
:10085000EB85FC853297BF0180E090E03296FC8703
:10086000EB872B813C814D815E810E948F16E60EC5
:10087000F71E081F191FD601ED91FC91C801B701A1
:100880004F81588595010995882361F18A189B0845
:10089000C501A0E0B0E0F301228D338D448D558D6C
:1008A000280F391F4A1F5B1FD3015A962D933D9382
:1008B0004D935C935D97C501840D951DE981FA8187
:1008C0008E179F07B0F08D919C916B857C850E945F
:1008D0001D039C878B87892B51F4D3015F961C9253
:1008E0001E925E9749855A854819590919C04424B2
:1008F00055242B853C85F301378F268F8114910475
:1009000039F06F8178856A0D7B1D78876F8388CF7A
:1009100049855A8505C04FEF5FEF02C040E050E0C7
:10092000CA012C960FB6F894DEBF0FBECDBFCF9193
:10093000DF911F910F91FF90EF90DF90CF90BF90CC
:10094000AF909F908F907F906F905F904F903F906F
:100950002F900895FC01009711F480E00895138E04
:10096000128E81E008954F925F926F927F928F92E4
:100970009F92AF92BF92CF92DF92EF92FF920F932E
:100980001F93DF93CF93CDB7DEB7A9970FB6F89437
:10099000DEBF0FBECDBF5C014B01009709F44DC017
:1009A0006115710509F449C0FC0180899189892B81
:1009B00009F043C0A081B181228D338D1097D1F110
:1009C000ED91FC911197628073806E010894C11CB7
:1009D000D11C89E0F60111928A95E9F73C832B83BB
:1009E00052966D917D918D919C9155971AE0412E73
:1009F000512C4C0E5D1E56960D911C915797061B5F
:100A0000170BA20120E230E0F4E5EF2EF2E0FF2E1A
:100A1000F3010995882371F02D813E814F8158851E
:100A2000211531054105510529F01FC0F4018081D0
:100A3000882389F5F501138E128E80E0A9960FB6F2
:100A4000F894DEBF0FBECDBFCF91DF911F910F9104
:100A5000FF90EF90DF90CF90BF90AF909F908F90DE
:100A60007F906F905F904F90089588E1F40111920C
:100A70008A95E9F70985CA01B901A20120E230E0AF
:100A800010E0E1E8EE2EE2E0FE2E6401F3010995AC
:100A9000882381F2CBCFF501828D938D0196938FC0
:100AA000828F81E0CBCFFB01892B61F0611571054D
:100AB00049F088E1DB011D928A95E9F780E185879D
:100AC00081E0089580E008952F923F924F925F92C7
:100AD0006F927F928F929F92AF92BF92CF92DF924E
:100AE000EF92FF920F931F93DF93CF93CDB7DEB7B3
:100AF000E0970FB6F894DEBF0FBECDBF6C01009734
:100B000009F490C1ABC1E0E8F1E08AE1DF011D9298
:100B10008A95E9F7D0928101C0928001D601199699
:100B20002D913D914D915C911C9719E0220F331F3F
:100B3000441F551F1A95D1F72AA33BA34CA35DA3CD
:100B4000CA01B901655F7F4F8F4F9F4FED91FC91B7
:100B5000AE014F5F5F4F29E130E00995882309F42A
:100B600084C1A9804A80BB81BEA30C81FD801E8107
:100B70003F81588469847A849D8580E02C85E22FAA
:100B8000F0E0E82BF92B8E883F88288DE98C309790
:100B900009F46BC1432D50E060E070E0962F852F83
:100BA000742F662769A77AA78BA79CA7822F90E04E
:100BB000A0E0B0E0BC015527442789A59AA5ABA5C4
:100BC000BCA5842B952BA62BB72B482D50E060E0BD
:100BD00070E0842B952BA62BB72B89A79AA7ABA7E0
:100BE000BCA78E2D90E0A0E0B0E0782F66275527B7
:100BF000442789A59AA5ABA5BCA5842B952BA62B2C
:100C0000B72B89A79AA7ABA7BCA70097A105B105E9
:100C100089F4972D80E0662D70E0682B792B6115A3
:100C2000710509F422C1CB01A0E0B0E089A79AA721
:100C3000ABA7BCA7942D80E02A2C3324282A392A7C
:100C4000952D80E0A32FB0E0A82BB92BB8A7AFA3B8
:100C50009F2D80E0202F30E0822B932B9C0140E0E1
:100C600050E02A8F3B8F4C8F5D8FBF0180E090E07A
:100C7000212F30E040E050E00E948F166E8F7F8F72
:100C800088A399A3E9A4FAA40BA51CA54A8D5B8DA2
:100C90006C8D7D8DE41AF50A060B170B6E8D7F8D1A
:100CA00088A199A1E61AF70A080B190BC10101974F
:100CB0002FA138A545E0220F331F4A95E1F7820F97
:100CC000931FB1010E94AE1680E090E0E61AF70A89
:100CD000080B190B7EA1272F30E040E050E0C8013F
:100CE000B7010E94D51629013A01D301C201855FDF
:100CF0009F40A040B0408050904FA040B04008F0CE
:100D0000B4C086E0D60118968C9392E8892E91E0C3
:100D1000992E88E1F40111928A95E9F75101CC24CA
:100D2000DD2469A57AA58BA59CA5A60195010E9445
:100D30008F16609382017093830180938401909356
:100D40008501C601B5012A8D3B8D4C8D5D8D0E94BC
:100D50008F167B018C012AA13BA14CA15DA1E20E63
:100D6000F31E041F151FE0928601F0928701009385
:100D700088011093890142E050E060E070E0440E89
:100D8000551E661E771E440C551C661C771C40922F
:100D90008A0150928B0160928C0170928D01309289
:100DA0008F0120928E015EA1852F90E0BC01269ECE
:100DB000C001279E900D369E900D112490939101B5
:100DC000809390016E8D7F8D88A199A1A6019501D8
:100DD0000E948F166E0D7F1D801F911F60939201E0
:100DE000709393018093940190939501AFA1B8A55E
:100DF0009D0140E050E005E0220F331F441F551FC6
:100E00000A95D1F7620F731F841F951F6093960197
:100E100070939701809398019093990194012250C7
:100E2000304002C020E030E0C901E0960FB6F894EF
:100E3000DEBF0FBECDBFCF91DF911F910F91FF900D
:100E4000EF90DF90CF90BF90AF909F908F907F906A
:100E50006F905F904F903F902F9008958091800108
:100E600090918101892BF1F64ECE10928101109262
:100E70008001D8CFCF93DF939C01DB01009729F14C
:100E80006115710511F11D968C911D9784FF1DC090
:100E90008091280190912901892B19F4E8E2F1E071
:100EA00008C08091440190914501892B71F4E4E4DC
:100EB000F1E0EF01229688E10D9009928150E1F76F
:100EC00031832083138E128E02C0E0E0F0E0CF0168
:100ED000DF91CF9108952F923F924F925F926F9240
:100EE0007F928F929F92AF92BF92CF92DF92EF92BA
:100EF000FF920F931F93DF93CF93CDB7DEB72A975F
:100F00000FB6F894DEBF0FBECDBF4C017C836B8360
:100F10001A01009709F4DEC0672B09F4DBC0411504
:100F2000510509F4D7C0DC015A96ED90FD900D9162
:100F30001C915D9780E09EEFAFEFBFEFE822F922B2
:100F40000A231B23D4015A96ED92FD920D931C9314
:100F50005D9752962D913D914D915C9155972E152F
:100F60003F054007510708F4B8C0C101A0E0B0E058
:100F70008E0D9F1DA01FB11F281739074A075B0759
:100F800028F419012E183F0809F4A7C0D401ED91E7
:100F9000FC911197208931893A8329835E968D913E
:100FA0009C915F979A878987290166247724892BEA
:100FB000D9F550960D90BC91A02DBA87A987AB2B7F
:100FC00039F4E114F1040105110509F486C082C069
:100FD000E114F1040105110539F157016801882771
:100FE0009927DC0184199509A609B7098D839E8389
:100FF000AF83B88714C0D4018D919C9169857A859F
:101000000E941D039A878987892B09F463C08D810B
:101010009E81AF81B885A80EB91ECA1EDB1EA4141E
:10102000B504C604D70438F7510191E0291692E0BF
:10103000390618F0A12C82E0B82EC801B701A3012F
:1010400092010E94D5167B0129813A81261B370B1C
:1010500065012A153B0508F4690100E010E0D401A0
:10106000ED91FC9186899789A08DB18DE80EF91ECE
:101070000A1F1B1FE985FA853297BF0180E090E0C7
:101080003296FA87E987A30192010E948F16E60E35
:10109000F71E081F191FC801B7014B815C8196011B
:1010A0000E945F0C892BC9F0960140E050E0F401EA
:1010B000828D938DA48DB58D820F931FA41FB51FB4
:1010C000828F938FA48FB58F29853A85378F268F8E
:1010D000A50105C04FEF5FEF02C040E050E0CA013C
:1010E0002A960FB6F894DEBF0FBECDBFCF91DF9129
:1010F0001F910F91FF90EF90DF90CF90BF90AF9036
:101100009F908F907F906F905F904F903F902F9027
:101110000895CF93DF939C01FB01009731F0611597
:10112000710519F0858584FF2BC08CE790E002C023
:1011300088E690E060E00E94C80C20E030E0C90141
:10114000DF91CF910895C2E6D1E0DF0188E10D90F3
:1011500009928150E1F73093610120936001109270
:101160007A0110927B0110927C0110927D0186859C
:10117000978590937F0180937E0120E631E0DFCF59
:101180008091600190916101892B91F6DCCF8F9263
:101190009F92AF92BF92CF92DF92EF92FF920F9306
:1011A000DF93CF93CDB7DEB760970FB6F894DEBF6D
:1011B0000FBECDBF7C016B015A014901009709F4B4
:1011C00093C06115710509F48FC004300CF08CC018
:1011D00007FD1DC0602F772767FD7095E4E0660F5F
:1011E000771FEA95E1F762547E4F882777FD809557
:1011F000982FAE014F5F5F4F20E130E0F701099576
:10120000882309F471C08D81882309F46DC0809111
:10121000A201882309F068C07CC08D818093A2015F
:101220002A8530E040E050E0542F432F322F222710
:101230008B8590E0A0E0B0E0DC0199278827282B7F
:10124000392B4A2B5B2B898590E0A0E0B0E0282B5E
:10125000392B4A2B5B2B8C8590E0A0E0B0E0B82FB7
:10126000AA2799278827282B392B4A2B5B2B2093D9
:10127000A3013093A4014093A5015093A6012E85AC
:1012800030E040E050E0542F432F322F22278F854B
:1012900090E0A0E0B0E0DC0199278827282B392BCB
:1012A0004A2B5B2B8D8590E0A0E0B0E0282B392BFA
:1012B0004A2B5B2B888990E0A0E0B0E0B82FAA27EA
:1012C00099278827282B392B4A2B5B2B2093A701A2
:1012D0003093A8014093A9015093AA0103C08FEF56
:1012E0008093A2019F0102C020E030E0C901609616
:1012F0000FB6F894DEBF0FBECDBFCF91DF910F9137
:10130000FF90EF90DF90CF90BF90AF909F908F9025
:101310000895EAE9F1E081E1DF011D928A95E9F79C
:10132000F0929B01E0929A01D0929D01C0929C01A3
:10133000B0929F01A0929E019092A1018092A00183
:1013400007FF6BCFCCCF282F8FEF8EBD0DB407FEDC
:10135000FDCF8DB58F778DBD8EB5822F80648EBD0C
:101360000DB407FEFDCF8DB58F778DBD872F9927E3
:10137000AA27BB278EBD0DB407FEFDCF8DB58F7795
:101380008DBDCB01AA27BB278EBD0DB407FEFDCFB7
:101390008DB58F778DBDBB27A72F962F852F8EBD3F
:1013A0000DB407FEFDCF8DB58F778DBD4EBD0DB44D
:1013B00007FEFDCF8DB58F778DBD222311F08FEF06
:1013C00001C085E98EBD0DB407FEFDCF8DB58F77C9
:1013D0008DBD90E02FEF2EBD0DB407FEFDCF8DB576
:1013E0008F778DBD8EB58F3F19F49F5F9A3099F737
:1013F0000895CF93DF9300000000239A259A229A44
:1014000024982A9A83E58CBD8DB58E7F8DBD20E012
:1014100030E09FEF9EBD0DB407FEFDCF8DB58F77F9
:101420008DBD8EB52F5F3F4F2A30310599F72A9831
:10143000C0E0D0E080E040E050E060E070E00E947A
:10144000A309813031F081E0CF3FD807E1F0219648
:10145000F1CFC0E0D0E081E040E050E060E070E03B
:101460000E94A30980FF06C08FE7CF3FD80759F03D
:101470002196F1CF80E140E052E060E070E00E9410
:10148000A309882319F02A9A80E008C02A9A8CB50B
:101490008C7F8CBD8DB581608DBD81E0DF91CF915A
:1014A00008958F929F92AF92BF92DF92EF92FF9238
:1014B0000F931F93CF93DF937B018C015A01E901B6
:1014C000DD24DA94812C42E0942E5EC02A98B80183
:1014D000A70140705E7F81E10E94A309882319F073
:1014E0002A9A80E055C0DEBC0DB407FEFDCF8DB555
:1014F0008F778DBD8EB58E3FB1F7A7015170B401C6
:10150000641B750BC617D70708F4BE01FB01E40F77
:10151000F51F20E030E0DEBC0DB407FEFDCF8DB539
:101520008F778DBD8EB52417350730F02E173F0706
:1015300018F4D5018D935D012F5F3F4FB2E020304D
:101540003B0749F7DEBC0DB407FEFDCF8DB58F77A5
:101550008DBD8EB5DEBC0DB407FEFDCF8DB58F778A
:101560008DBD8EB52A9ADEBC0DB407FEFDCF8DB5BC
:101570008F778DBD8EB5C61BD70BCB01A0E0B0E039
:10158000E80EF91E0A1F1B1F209709F09FCF81E06C
:10159000DF91CF911F910F91FF90EF90DF90BF905F
:1015A000AF909F908F90089520911A0130911B0168
:1015B0009FEF0AC09EBD0DB407FEFDCF8DB58F779E
:1015C0008DBD8EB52F5F3F4F82E02030380790F3FE
:1015D0008FEF8EBD0DB407FEFDCF8DB58F778DBD1E
:1015E0008EB58FEF8EBD0DB407FEFDCF8DB58F7715
:1015F0008DBD8EB52A9A8FEF8EBD0DB407FEFDCF3F
:101600008DB58F778DBD8EB58FEF9FEF90931B01BA
:1016100080931A0108952F923F924F925F926F929A
:101620007F928F929F92AF92BF92CF92DF92EF9272
:10163000FF920F931F93DF93CF93CDB7DEB72C9715
:101640000FB6F894DEBF0FBECDBF4B015C011A018F
:101650003C872B872801FE82ED82D886CF824115F8
:10166000510509F4DCC02115310509F4D8C0021771
:10167000130708F4D4C0EF2809F4D1C02A98309594
:1016800021953F4F3A87298784011170D501C40104
:1016900080709E7F89839A83AB83BC8381E149817B
:1016A0005A816B817C810E94A309882311F02A9AB8
:1016B000B6C09FEF9EBD0DB407FEFDCF8DB58F77F1
:1016C0008DBD8EB58E3FA9F720E030E00BC0AFEFA7
:1016D000AEBD0DB407FEFDCF8DB58F778DBD8EB538
:1016E0002F5F3F4F2017310790F3E12C52E0F52E8A
:1016F000E01AF10A3701EB85FC856E1A7F0A620158
:10170000CE1ADF0A00E012E00E191F092B853C8576
:10171000E216F30648F14216530630F1F10120E0DB
:1017200030E00CC08FEF8EBD0DB407FEFDCF8DB540
:101730008F778DBD8EB581932F5F3F4FAB85BC8575
:101740002A173B0778F3A80160E070E0480D591DA7
:101750006A1D7B1DC1012F813885ED81FE810995B0
:10176000882321F491E026C090E024C02B853C859D
:10177000E21AF30A421A530A61147104A9F3898523
:101780009A85680E791EC80ED91E020F131FC90153
:101790008C0D9D1D892B09F0B9CFE6CFAFEFAEBD03
:1017A0000DB407FEFDCF8DB58F778DBD8EB5089436
:1017B000E108F108E114F10489F7BFEFBEBD0DB4F3
:1017C00007FEFDCF8DB58F778DBD8EB5EFEFEEBDEA
:1017D0000DB407FEFDCF8DB58F778DBD8EB52B85F2
:1017E0003C854216530678F0992369F489809A80E3
:1017F000AB80BC8080E092E0A0E0B0E0880E991E53
:10180000AA1EBB1E41CF2A9A8FEF8EBD0DB407FED4
:10181000FDCF8DB58F778DBD8EB581E001C080E0A5
:101820002C960FB6F894DEBF0FBECDBFCF91DF91DF
:101830001F910F91FF90EF90DF90CF90BF90AF90EE
:101840009F908F907F906F905F904F903F902F90E0
:101850000895FC0120911A0130911B014FEF2F3F99
:10186000340731F486E890E060E00E94C80CFFCFB6
:10187000CB01820F931F8150924020F060E072E014
:10188000621B730B20E030E04FEF14C04EBD0DB46F
:1018900007FEFDCF8DB58F778DBD8EB5819380917D
:1018A0001A0190911B01019690931B0180931A01DC
:1018B0002F5F3F4F2617370748F3CB010895CF928C
:1018C000DF92EF92FF920F931F93CF93DF937B01F1
:1018D0008C016A0180911A0190911B018F5F9F4FCB
:1018E00031F08BE890E060E00E94C80CFFCFE90186
:1018F00082E02130380710F0C0E0D2E02A9880E082
:101900009EEFAFEFBFEFE822F9220A231B2381E10C
:10191000B801A7010E94A309882321F02A9AC0E0F8
:10192000D0E02CC09FEF9EBD0DB407FEFDCF8DB55E
:101930008F778DBD8EB58E3FB1F710921B0110923F
:101940001A012FEF14C02EBD0DB407FEFDCF8DB5CB
:101950008F778DBD8EB5D6018D936D0180911A0163
:1019600090911B01019690931B0180931A01809125
:101970001A0190911B018C179D0728F3CE01DF916E
:10198000CF911F910F91FF90EF90DF90CF9008952E
:101990000F931F93CF93DF93EC01062F10E005C048
:1019A00088E694E00E9476151F5FFE01E10FF11DAD
:1019B00064916623A9F7002351F088E694E06AE079
:1019C0000E947E1588E694E06DE00E947E15DF910E
:1019D000CF911F910F9108951F920F920FB60F9202
:1019E00011242F933F934F938F939F93AF93BF9364
:1019F000EF93FF932F933F934F935F936F937F9357
:101A0000AF93BF93E091AB01F091AC01309709F433
:101A1000B0C02091B1033091B2038091B303909193
:101A2000B4032817390709F047C08091B60388230B
:101A3000B9F18091AD039091AE032DEA32E041E01F
:101A40008D3A940749F43093AE032093AD039093FD
:101A5000B0038093AF030AC08DEA91E09093AE0388
:101A60008093AD033093B0032093AF038091AD0317
:101A70009091AE039093B2038093B10380509F4F37
:101A80009093B4038093B3031092B6038091B5038F
:101A9000882391F480916F00846080936F000CC064
:101AA00081899289A389B4890196A11DB11D818B79
:101AB000928BA38BB48B5DC05A985C985B9A5B98B1
:101AC0005C9A5B9A5B985B9A5B985B9A5B98878160
:101AD000803119F5E091B103F091B2038181805812
:101AE00090E087FF02C05C9A01C05C985B9A5B98AB
:101AF0009F5F983011F0880FF4CF908180E097FFBE
:101B000002C05C9A01C05C985B9A5B988F5F8430DE
:101B100011F0990FF4CF32961DC08830F9F4E0919E
:101B2000B103F091B203908180E097FF02C05C9A0C
:101B300001C05C985B9A5B988F5F883011F0990FB9
:101B4000F4CF5B9A5B985B9A5B985B9A5B985B9A25
:101B50005B983196F093B203E093B1035A9A5D9883
:101B60005D9ABF91AF917F916F915F914F913F913E
:101B70002F91FF91EF91BF91AF919F918F914F91D5
:101B80003F912F910F900FBE0F901F9018950895C1
:101B90009A01AB0186B58823E9F760E074E284EF2F
:101BA00090E00E94D5163093890020938800089514
:101BB000CF93DF93EC0180916F008D7F80936F0056
:101BC0008D89882319F00E94D40A1D8AE091AB0107
:101BD000F091AC01108A1092AC011092AB01DF9130
:101BE000CF910895CF92DF92EF92FF920F931F93C0
:101BF000DF93CF93CDB7DEB728970FB6F894DEBF4B
:101C00000FBECDBF8C016B01CB017E010894E11C9E
:101C1000F11CB70144E050E00E946703049709F00B
:101C2000F0C0C70160E071E044E050E00E942D0187
:101C3000009709F0E6C0F5C0CE01059665E071E0B9
:101C400044E050E00E942D01009709F0DAC0F2C094
:101C5000C7016AE071E044E050E00E942D01009766
:101C600009F0CFC0F0C0542F432F322F222780819C
:101C7000280F311D411D511D3197EC17FD0799F7B4
:101C8000F80124873587468757872031310541057C
:101C9000510509F0B6C0C601BE016F5F7F4F48E035
:101CA00050E00E946703089709F0ABC08A8190E07A
:101CB000A0E0B0E0BA2FA92F982F88272981820FA2
:101CC000911DA11DB11D0197A105B10519F088EA6B
:101CD00090E083C08C8190E0A0E0B0E02227382F14
:101CE000492F5A2F8B81280F311D411D511D233043
:101CF00031054105510508F084C0F8012083FE013B
:101D00003896BE016C5F7F4F542F432F322F22270E
:101D10008081280F311D411D511D3197E617F707AE
:101D200099F7F8012183328343835483C601BE01AE
:101D30006F5F7F4F48E050E00E946703089709F00B
:101D400060C08E8190E0A0E0B0E0BA2FA92F982F5C
:101D500088272D81820F911DA11DB11DF801968349
:101D60008583888590E0A0E0B0E02227382F492FB6
:101D70005A2F8F81280F311D411D511D21313105F1
:101D80004105510508F03DC0278381819281A381DF
:101D9000B4818332F6E59F07F0E0AF07F0E0BF07BC
:101DA00018F0293040F00CC081589E43A040B0404C
:101DB00050F0293040F0FF24F8018081823020F07B
:101DC000FF24F39401C0FF2487EA90E061E00E94C1
:101DD000C80CFF2031F081E990E061E00E94C80C5E
:101DE00010C0F8011086118612861386D08EC78A1D
:101DF000118A128A138A148A108A158A168A81E037
:101E000001C080E028960FB6F894DEBF0FBECDBFAC
:101E1000CF91DF911F910F91FF90EF90DF90CF90C6
:101E20000895C601B70148E050E00E946703089793
:101E300041F702CFC601B70144E050E00E946703BA
:101E40000497F9F605CFF8011486158616861786CD
:101E5000C601B70144E050E00E946703049789F689
:101E6000F8012485358546855785FE013496FBCEDD
:101E7000AF92BF92CF92DF92EF92FF920F931F9398
:101E8000DF93CF9300D000D00F92CDB7DEB76C01B7
:101E90005B01F42EE52EFC0180859185A285B3853A
:101EA0000097A105B105D1F58789908D8E010F5F4F
:101EB0001F4FB80144E050E00E946703049709F007
:101EC000F5C01D82D60157968D919C915897B80107
:101ED00044E050E00E946703049709F0E7C0F60170
:101EE0001086118612861386FE01349620E030E0BB
:101EF00040E050E0542F432F322F22278081280FBB
:101F0000311D411D511D3197EC17FD0799F7D60181
:101F100018962D933D934D935C931B978F2D9E2D7B
:101F20009C017901B2E021303B0718F0E12C72E00E
:101F3000F72EF6012085318542855385C701A0E043
:101F4000B0E0281739074A075B0708F47901D60182
:101F50005796ED91FC915897828D938DA48DB58DF8
:101F60009170A070B0700097A105B105D1F4D601B1
:101F700055968C918823A9F4CF01B501A7010E9441
:101F80006B078C018E159F0541F082EE90E060E0BA
:101F90000E94C80C0E94D40A8BC081E0F601858B98
:101FA00073C0D60155968C91882309F463C0C5018E
:101FB000B7010E94290C5C018E159F0539F08CED4C
:101FC00090E060E00E94C80C0E94D40AD6015796A7
:101FD000ED91FC915897C501A0E0B0E0228D338DC2
:101FE000448D558D820F931FA41FB51F828F938F31
:101FF000A48FB58F9170A070B0700097A105B10546
:1020000009F041C00E94D40AF601158A0789108D93
:10201000D801ED90FC901197F7012089318940E0BB
:1020200050E05A966D917D918D919C915D970E94A3
:10203000D516611571058105910529F5D8015E96C2
:102040006D917C915F97C7010E941D03F801978FE6
:10205000868F892BC1F4D6015796ED91FC91589744
:10206000178E168E82EC90E061E00E94C80C0FEF94
:102070001FEF1EC0CF01B501A7010E9467038E1597
:102080009F05A1F401C07501970140E050E0F60101
:1020900080859185A285B385821B930BA40BB50B1C
:1020A00080879187A287B387870102C000E010E094
:1020B000C8010F900F900F900F900F90CF91DF916C
:1020C0001F910F91FF90EF90DF90CF90BF90AF9056
:1020D0000895CF92DF92EF92FF920F931F93CF93C9
:1020E000DF93EC01C980DA80EB80FC809093AC0137
:1020F0008093AB010DEA11E01093B2030093B1039A
:10210000B80142E050E00E94380F892B09F451C019
:102110008091B1039091B20302969093B40380939F
:10212000B303EF89F88D828D40E051E0481B5109DF
:102130008091AB019091AC01B8016E5F7F4F0E941E
:10214000380F9C010097A9F18091B3039091B403DB
:10215000820F931F9093B4038093B3038091AB01DC
:102160009091AC016DEA72E040E051E00E94380FBE
:1021700081E08093B603888B1092800089E0809381
:10218000810060E074E284EF90E0A70196010E9474
:10219000D516309389002093880081E090E09093D9
:1021A0008B0080938A0080916F00826080936F0023
:1021B0007894DF91CF911F910F91FF90EF90DF9076
:1021C000CF9008951F920F920FB60F9211242F9364
:1021D0003F934F935F936F937F938F939F93AF93AF
:1021E000BF93EF93FF932F933F934F935F936F931F
:1021F0007F93AF93BF9380916F008B7F80936F002D
:102200008091B603882339F581E08093B5037894F3
:102210006091AF037091B0038091AB019091AC01DC
:1022200040E051E00E94380F892B31F48091AB01DE
:102230009091AC010E94D80DF8941092B50381E002
:102240008093B6037894BF91AF917F916F915F9126
:102250004F913F912F91FF91EF91BF91AF919F913E
:102260008F917F916F915F914F913F912F910F903F
:102270000FBE0F901F90189587EB93E00E944A01C4
:102280008FEB93E00E94C70D0895BC0187EB93E0AC
:102290000E94A501BC019093BE038093BD030097EB
:1022A00019F489EF90E008C08FEB93E00E94F20DE3
:1022B000882331F488EE90E061E00E94C80C089514
:1022C0008FEB93E00E9469100895EF92FF920F93B5
:1022D0001F93CF93DF930E94451178C080E00E9446
:1022E0007E13EC012091D9033091DA03821B930B0A
:1022F000049734F42C1B3D0B243031050CF460C0E2
:1023000081E291E060E00E94C80C7E010027F7FCAA
:102310000095102F88E694E0B801A7012AE030E08C
:102320000E94841682E191E060E00E94C80C409116
:10233000C0035091C1036091C2037091C30388E64A
:1023400094E02AE030E00E946F168DE091E060E0BA
:102350000E94C80C2091C0033091C1034091C20378
:102360005091C303C801B7010E948F167B018C01F5
:1023700099E016950795F794E7949A95D1F781EC33
:10238000E8168DE5F80680E0080780E0180730F0D1
:1023900080ECE82E8DE5F82E012D112D8FEB93E0CA
:1023A000B801A7010E94C80D88E694E0B801A70112
:1023B0002AE030E00E948416D093DA03C093D90358
:1023C00064E670E080E090E00E941A138091CF03F1
:1023D000882309F083CF6091BD037091BE0387EB22
:1023E00093E00E944B01DF91CF911F910F91FF90DD
:1023F000EF900895EF92FF921F93DF93CF93CDB7A5
:10240000DEB72F970FB6F894DEBF0FBECDBF87EBB8
:1024100093E00E944F0110E07E010894E11CF11C42
:102420000BC087EB93E0B7010E94AE01882319F43B
:102430001092D8031FC01F5F8091D80390E0212F16
:1024400030E0821793076CF788E291E060E00E9429
:10245000C80C88E694E0B7010E94861587EB93E0EC
:102460000E944F01C7010E9465118091D8038F5FC0
:102470008093D8032F960FB6F894DEBF0FBECDBF62
:10248000CF91DF911F91FF90EF9008950F931F93CD
:10249000DF93CF93CDB7DEB72D970FB6F894DEBF9D
:1024A0000FBECDBF87EB93E00E944F0183E391E025
:1024B00061E00E94C80C8E010F5F1F4F87EB93E015
:1024C000B8010E94AE01882379F487EB93E00E9463
:1024D0004F012D960FB6F894DEBF0FBECDBFCF9142
:1024E000DF911F910F91089588E694E0B8010E9452
:1024F000A515E4CF88E694E040E855E260E070E09E
:102500000E94F91388E694E06FE071E00E94A5153F
:1025100082E061E00E949C1383E061E00E949C13D2
:1025200084E061E00E949C1385E061E00E949C13BE
:1025300089E061E00E949C1387EB93E00E945102C6
:10254000882319F483E891E01AC087EB93E00E9496
:102550002602882319F485E791E011C087EB93E008
:102560000E941302882319F48FE591E008C087EBDD
:1025700093E00E94DF01882331F48DE491E061E073
:102580000E94C80C089580E491E061E00E94C80CAC
:102590000E94461208950E9444130E947A120E94DB
:1025A000FA11FDCF1F920F920FB60F9211242F93A5
:1025B0003F938F939F93AF93BF938091DF0390914D
:1025C000E003A091E103B091E2033091E3030196AF
:1025D000A11DB11D232F2D5F2D3720F02D57019602
:1025E000A11DB11D2093E3038093DF039093E003CB
:1025F000A093E103B093E2038091DB039091DC03AD
:10260000A091DD03B091DE030196A11DB11D809361
:10261000DB039093DC03A093DD03B093DE03BF9153
:10262000AF919F918F913F912F910F900FBE0F907F
:102630001F901895EF92FF920F931F937B018C01CF
:102640008FB7F8944091DF035091E0036091E1036C
:102650007091E2038FBF2FB7F8948091DF039091C0
:10266000E003A091E103B091E2032FBF841B950B1F
:10267000A60BB70BE816F9060A071B0760F71F91B0
:102680000F91FF90EF900895789484B5826084BD97
:1026900084B5816084BD85B5826085BD85B5816066
:1026A00085BDEEE6F0E0808181608083E1E8F0E0C6
:1026B000808182608083808181608083E0E8F0E0B7
:1026C000808181608083E1EBF0E0808184608083A1
:1026D000E0EBF0E0808181608083EAE7F0E08081D8
:1026E0008460808380818260808380818160808338
:1026F0008081806880831092C10008958F709091CE
:102700001C019295990F990F907C982B90937C00C7
:1027100080917A00806480937A0080917A0086FDAF
:10272000FCCF2091780040917900942F80E030E038
:10273000282B392BC9010895282F30E0C90188536F
:102740009E4FFC0194912C543E4FF90184918823B3
:1027500091F0E82FF0E0EE0FFF1FEA56FE4FA59133
:10276000B491662329F48C91909589238C930895D4
:102770008C91892B8C9308951F920F920FB60F9214
:1027800011242F933F934F935F936F937F938F9376
:102790009F93AF93BF93EF93FF934091C600E09157
:1027A0006404F0916504CF01019660E870E00E9436
:1027B000C2169C018091660490916704281739071E
:1027C00039F0EC51FC4F408330936504209364044E
:1027D000FF91EF91BF91AF919F918F917F916F91F9
:1027E0005F914F913F912F910F900FBE0F901F90CF
:1027F00018955F926F927F928F929F92AF92BF9245
:10280000CF92DF92EF92FF920F931F93CF93DF93BC
:10281000EC013A014B01413482E458078FE068072C
:1028200080E078070CF07FC060E874E88EE190E00B
:10283000A40193010E94F7162150304040405040BF
:10284000CA01B90122E030E040E050E00E94F716F2
:1028500059016A01A6019501209530954095509542
:1028600094E0220F331F441F551F9A95D1F760E063
:1028700074E284EF90E00E94F716CA01B9012FEFCD
:1028800030E040E050E00E948F16A40193010E94C6
:10289000F716C90181509F4F181619061CF4522EC5
:1028A0005A9403C055245394521A60E079E08DE3A2
:1028B00090E0A40193010E94F7162150304040405F
:1028C0005040CA01B90122E030E040E050E00E94EF
:1028D000F716209530954095509583E0220F331FD1
:1028E000441F551F8A95D1F760E074E284EF90E0B1
:1028F0000E94F716CA01B9012FEF30E040E050E026
:102900000E948F16A40193010E94F716C9018150FD
:102910009F4F181619061CF4822F815002C081E0C7
:10292000821B851500F5E885F98581E090E00A882D
:1029300002C0880F991F0A94E2F7808360E079E073
:102940008DE390E0A40193010E94F71621503040DE
:1029500040405040CA01B90122E030E040E050E080
:102960000E94F71604C0E885F98510829501EC8174
:10297000FD813083EE81FF812083EA85FB85208104
:1029800041E050E0CA010E8402C0880F991F0A94EA
:10299000E2F7282B2083EA85FB852081CA010F847A
:1029A00002C0880F991F0A94E2F7282B2083EA853A
:1029B000FB858081088802C0440F551F0A94E2F706
:1029C000842B8083DF91CF911F910F91FF90EF9027
:1029D000DF90CF90BF90AF909F908F907F906F903F
:1029E0005F900895FC01A085B18521898C9190E0CC
:1029F000022E02C0959587950A94E2F780FFF6CFE4
:102A00000484F585E02D6083089581E291E0909340
:102A100069048093680484EE93E090936B04809340
:102A20006A0485EC90E090936D0480936C0484ECD0
:102A300090E090936F0480936E0480EC90E090930C
:102A400071048093700481EC90E090937304809300
:102A5000720486EC90E0909375048093740484E093
:102A60008093760483E08093770487E080937804F2
:102A700085E08093790481E080937A0408950F9330
:102A80001F93CF93DF938C01EB0109C02196D801EE
:102A9000ED91FC910190F081E02DC80109956881CC
:102AA0006623A1F7DF91CF911F910F910895EF92C7
:102AB000FF920F931F93CF93DF938C017B01EA0169
:102AC0000CC0D7016D917D01D801ED91FC91019071
:102AD000F081E02DC80109952197209791F7DF91AA
:102AE000CF911F910F91FF90EF900895DC01ED9130
:102AF000FC910190F081E02D09950895DC01ED91A4
:102B0000FC910190F081E02D09950895DC01ED9193
:102B1000FC910280F381E02D099508950F931F9396
:102B20008C01DC01ED91FC910190F081E02D6DE0D4
:102B30000995D801ED91FC910190F081E02DC8013B
:102B40006AE009951F910F9108950F931F938C01CF
:102B50000E948615C8010E948E151F910F9108953D
:102B60002F923F924F925F926F927F928F929F929D
:102B7000AF92BF92CF92DF92EF92FF920F931F938B
:102B8000DF93CF93CDB7DEB7A0970FB6F894DEBF33
:102B90000FBECDBF1C016A017B01411551056105C6
:102BA000710549F4DC01ED91FC910190F081E02D7B
:102BB00060E3099554C0882499245401422E552479
:102BC0006624772401E010E00C0F1D1F080D191D6D
:102BD000C701B601A30192010E94D516F8016083D6
:102BE0000894811C911CA11CB11CC701B601A30152
:102BF00092010E94D516C901DA016C017D01C11450
:102C0000D104E104F104F1F681E0E82EF12CEC0EA0
:102C1000FD1EE80CF91C3E010894611C711CD501D5
:102C2000C4010197A109B1096C01C818D90814C0E1
:102C3000F601EE0DFF1D60816A3010F4605D01C089
:102C4000695CD101ED91FC910190F081E02DC10111
:102C500009950894E108F1086E147F0449F7A096DD
:102C60000FB6F894DEBF0FBECDBFCF91DF911F919D
:102C70000F91FF90EF90DF90CF90BF90AF909F901B
:102C80008F907F906F905F904F903F902F9008951E
:102C9000EF92FF920F931F93CF93DF93EC017A0192
:102CA0008B0177FF0FC0E881F9810190F081E02D61
:102CB0006DE2099510950095F094E094E11CF11CEB
:102CC000011D111DCE01B801A7012AE00E94B01517
:102CD000DF91CF911F910F91FF90EF900895DC014C
:102CE0002115310541F4ED91FC910190F081E02D29
:102CF000642F099508952A30310519F40E94481669
:102D000008950E94B01508950F931F938C010E949F
:102D10006F16C8010E948E151F910F910895629F32
:102D2000D001739FF001829FE00DF11D649FE00DC3
:102D3000F11D929FF00D839FF00D749FF00D659F24
:102D4000F00D9927729FB00DE11DF91F639FB00D23
:102D5000E11DF91FBD01CF0111240895AA1BBB1B62
:102D600051E107C0AA1FBB1FA617B70710F0A61B8B
:102D7000B70B881F991F5A95A9F780959095BC01AC
:102D8000CD01089597FB092E07260AD077FD04D0C0
:102D9000E5DF06D000201AF4709561957F4F089505
:102DA000F6F7909581959F4F0895A1E21A2EAA1BE0
:102DB000BB1BFD010DC0AA1FBB1FEE1FFF1FA217EB
:102DC000B307E407F50720F0A21BB30BE40BF50BE8
:102DD000661F771F881F991F1A9469F76095709571
:102DE000809590959B01AC01BD01CF01089597FBA3
:102DF000092E05260ED057FD04D0D7DF0AD0001CBF
:102E000038F450954095309521953F4F4F4F5F4F87
:102E10000895F6F790958095709561957F4F8F4F47
:102E20009F4F0895EE0FFF1F0590F491E02D099438
:042E3000F894FFCF44
:102E340052494646005741564500666D7420005776
:102E440061766520746573742100FFFF0100000042
:082E540000F2143F15571500B0
:00000001FF
