:100000000C945B000C9481030C949E030C9483006D
:100010000C9483000C9483000C9483000C94830054
:100020000C9483000C9483000C9483000C94830044
:100030000C9483000C9483000C9483000C94830034
:100040000C94BB030C9483000C9457050C94830010
:100050000C9483000C9483000C9483000C94830014
:100060000C9483000C948300000024272A000025B0
:10007000282B000023262904040404040404040299
:100080000202020202030303030303010204081035
:100090002040800102040810200102040810200002
:1000A0000000070002010000030406000000000039
:1000B00000000000680211241FBECFEFD4E0DEBFB5
:1000C000CDBF11E0A0E0B1E0E0E0FCE002C00590AF
:1000D0000D92AA33B107D9F711E0AAE3B1E001C04C
:1000E0001D92AA3EB107E1F710E0C6EBD0E004C0D4
:1000F0002297FE010E94FA05C43BD107C9F70E946E
:1001000061020C94FE050C940000EF92FF920F9395
:100110001F93109251011092500180913A010E9458
:100120008F0490933D0180933C01809125010E94B2
:100130008F0490933F0180933E01809127010E949C
:100140008F049093410180934001809129010E9486
:100150008F04909343018093420180912B010E9470
:100160008F047C019093450180934401E0912D011F
:10017000F0912E0120912F01309130012E1B3F0B69
:1001800080913C0190913D018E1B9F0B04E610E095
:10019000AC01409FC001419F900D509F900D1124D4
:1001A000B9010E94940570934701609346018091C4
:1001B0003E0190913F018E1B9F0BAC01409FC001FF
:1001C000419F900D509F900D1124B9010E949405FC
:1001D00070934901609348018091400190914101E1
:1001E0008E1B9F0BAC01409FC001419F900D509F03
:1001F000900D1124B9010E94940570934B016093F6
:100200004A0180914201909143018E1B9F0BAC01EA
:10021000409FC001419F900D509F900D1124B90146
:100220000E94940570934D0160934C01EE1AFF0AF1
:10023000E09EC001E19E900DF09E900D1124B90149
:100240000E94940570934F0160934E0160E071E04D
:1002500084E591E00E94A7026091460170914701F8
:1002600084E591E00E94710362E071E084E591E031
:100270000E94A702609148017091490184E591E0D4
:100280000E94710364E071E084E591E00E94A7029E
:1002900060914A0170914B0184E591E00E947103E5
:1002A00066E071E084E591E00E94A70260914C0154
:1002B00070914D0184E591E00E94710368E071E066
:1002C00084E591E00E94A70260914E0170914F0178
:1002D00084E591E00E9471036AE071E084E591E0B9
:1002E0000E94A70210925101109250018091460184
:1002F00090914701909353018093520120914801BE
:10030000309149014091310150913201840F951F84
:100310008217930754F4309353012093520181E0E4
:1003200090E0909351018093500120914A013091C7
:100330004B018091520190915301840F951F8217B8
:10034000930754F4309353012093520182E090E0DC
:10035000909351018093500120914C0130914D01B7
:100360008091520190915301840F951F821793073A
:1003700054F4309353012093520183E090E0909322
:1003800051018093500120914E0130914F01809195
:10039000520190915301480F591F4217530754F4CB
:1003A000309353012093520184E090E090935101E7
:1003B0008093500160E171E084E591E00E94A70222
:1003C000609150017091510184E591E00E947103A8
:1003D0008091500190915101009719F08130910561
:1003E00089F460E0809119010E94CB0461E0809162
:1003F0001B010E94CB0461E080911F010E94CB048D
:1004000060E01FC08230910539F460E080911901ED
:100410000E94CB0461E00BC08330910511F004977A
:10042000D1F461E0809119010E94CB0460E08091D9
:100430001B010E94CB0460E080911F010E94CB044D
:1004400061E0809121010E94CB0464EF71E080E0C3
:1004500090E00E942B041F910F91FF90EF90089560
:1004600040E855E260E070E084E591E00E947302AC
:1004700061E0809119010E94AD0461E080911B014F
:100480000E94AD0461E080911D010E94AD0461E015
:1004900080911F010E94AD0461E0809121010E94C2
:1004A000AD0461E0809123010E94AD0461E0809180
:1004B0001D010E94CB0461E0809123010E94CB04C6
:1004C00008950E9455040E9430020E948500FDCFCD
:1004D00088E391E090935501809354010895862F0D
:1004E0000E944F050895CB01BA010E941605089598
:1004F0000F931F93CF93DF938C01EB0109C02196DB
:10050000D801ED91FC910190F081E02DC801099591
:1005100068816623A1F7DF91CF911F910F91089514
:100520000F931F938C01DC01ED91FC910190F08100
:10053000E02D6DE00995D801ED91FC910190F081DD
:10054000E02D6AE0C80109951F910F9108950F935E
:100550001F938C010E947802C8010E9490021F9193
:100560000F9108952F923F924F925F926F927F92D8
:100570008F929F92AF92BF92CF92DF92EF92FF92B3
:100580000F931F93DF93CF93CDB7DEB7A0970FB62E
:10059000F894DEBF0FBECDBF1C016A017B0141157F
:1005A00051056105710549F4DC01ED91FC91019063
:1005B000F081E02D60E3099554C08824992454010A
:1005C000422E55246624772401E010E00C0F1D1FF5
:1005D000080D191DC701B601A30192010E94A705CC
:1005E000F80160830894811C911CA11CB11CC701F7
:1005F000B601A30192010E94A705C901DA016C01AD
:100600007D01C114D104E104F104F1F681E0E82E8A
:10061000F12CEC0EFD1EE80CF91C3E010894611C47
:10062000711CD501C4010197A109B1096C01C81859
:10063000D90814C0F601EE0DFF1D60816A3010F478
:10064000605D01C0695CD101ED91FC910190F08188
:10065000E02DC10109950894E108F1086E147F04AA
:1006600049F7A0960FB6F894DEBF0FBECDBFCF916D
:10067000DF911F910F91FF90EF90DF90CF90BF908F
:10068000AF909F908F907F906F905F904F903F9032
:100690002F900895EF92FF920F931F93CF93DF93C4
:1006A000EC017A018B0177FF0FC0E881F98101909D
:1006B000F081E02D6DE2099510950095F094E0949D
:1006C000E11CF11C011D111D2AE0B801A701CE019A
:1006D0000E94B202DF91CF911F910F91FF90EF9096
:1006E00008950F931F938C01AB01662757FD60950A
:1006F000762F0E944A03C8010E9490021F910F9119
:1007000008951F920F920FB60F9211248F939F930B
:10071000EF93FF938091560190915701892B29F017
:10072000E0915601F09157010995FF91EF919F914A
:100730008F910F900FBE0F901F9018951F920F92E0
:100740000FB60F9211248F939F93EF93FF93809195
:10075000580190915901892B29F0E0915801F091AD
:1007600059010995FF91EF919F918F910F900FBEC5
:100770000F901F9018951F920F920FB60F92112491
:100780002F938F939F93AF93BF9380915A01909132
:100790005B01A0915C01B0915D010196A11DB11DAD
:1007A00080935A0190935B01A0935C01B0935D012B
:1007B00080915E0190915F01A0916001B091610113
:1007C0008050904CAF4FBF4F80935E0190935F017C
:1007D000A0936001B093610127C080915E01909168
:1007E0005F01A0916001B091610180589E43A040DB
:1007F000B04080935E0190935F01A0936001B0933D
:1008000061018091620190916301A0916401B091B6
:1008100065010196A11DB11D809362019093630152
:10082000A0936401B093650180915E0190915F0196
:10083000A0916001B091610181589E43A040B040F9
:1008400060F6BF91AF919F918F912F910F900FBE46
:100850000F901F901895EF92FF920F931F937B01BB
:100860008C018FB7F89440916201509163016091BF
:100870006401709165018FBF2FB7F8948091620178
:1008800090916301A0916401B09165012FBF841B19
:10089000950BA60BB70BE816F9060A071B0760F7BE
:1008A0001F910F91FF90EF900895789484B5826026
:1008B00084BD84B5816084BD85B5826085BD85B504
:1008C000816085BDEEE6F0E0808181608083E1E8B3
:1008D000F0E0808182608083808181608083E0E8B5
:1008E000F0E0808181608083E1EBF0E080818460D2
:1008F0008083E0EBF0E0808181608083EAE7F0E0D4
:100900008081846080838081826080838081816037
:1009100080838081806880831092C10008958F70E9
:10092000909133019295990F990F907C982B909309
:100930007C0080917A00806480937A0080917A00B4
:1009400086FDFCCF2091780040917900942F80E0C3
:1009500030E0282B392BC9010895282F30E0C90138
:1009600085579F4FFC01949129583F4FF90184917D
:10097000882381F0E82FF0E0E859FF4FE491F0E0A0
:10098000662329F48081909589238083089580814E
:10099000892B80830895482F50E0CA0181569F4FCC
:1009A000FC012491CA0185579F4FFC01949149583D
:1009B0005F4FFA0134913323C1F1222331F1233007
:1009C00021F4809180008F7705C0243031F480912C
:1009D00080008F7D8093800018C0213019F484B589
:1009E0008F7704C0223021F484B58F7D84BD0DC083
:1009F000263021F48091B0008F7705C0273029F48C
:100A00008091B0008F7D8093B000E32FF0E0E35938
:100A1000FF4FE491F0E0662329F4808190958923CB
:100A2000808308958081892B80830895EF92FF92BF
:100A30000F931F937B018C0122E030E040E050E0F7
:100A40000E94C905205C3D4B404F5F4FCA01B90170
:100A5000A80197010E94C905C901DA010197A109FE
:100A6000B109292F3A2F4B2F552747FD5A9501964B
:100A7000A11DB11D2093C50081508093C400E1ECFD
:100A8000F0E08081806180838081886080838081C4
:100A9000806880831F910F91FF90EF900895982FA9
:100AA0008091C00085FFFCCF9093C60008951F92EF
:100AB0000F920FB60F9211242F933F934F935F9392
:100AC0006F937F938F939F93AF93BF93EF93FF9316
:100AD0004091C600E0916601F0916701CF01019657
:100AE00060E870E00E9494059C01809168019091FB
:100AF00069012817390739F0E659FE4F40833093D2
:100B0000670120936601FF91EF91BF91AF919F9193
:100B10008F917F916F915F914F913F912F910F90A6
:100B20000FBE0F901F90189597FB092E07260AD02D
:100B300077FD04D049D006D000201AF47095619555
:100B40007F4F0895F6F7909581959F4F0895A1E204
:100B50001A2EAA1BBB1BFD010DC0AA1FBB1FEE1F37
:100B6000FF1FA217B307E407F50720F0A21BB30B82
:100B7000E40BF50B661F771F881F991F1A9469F7FE
:100B800060957095809590959B01AC01BD01CF015A
:100B9000089597FB092E05260ED057FD04D0D7DF08
:100BA0000AD0001C38F450954095309521953F4F60
:100BB0004F4F5F4F0895F6F790958095709561952A
:100BC0007F4F8F4F9F4F0895AA1BBB1B51E107C05A
:100BD000AA1FBB1FA617B70710F0A61BB70B881FCD
:100BE000991F5A95A9F780959095BC01CD0108955C
:100BF000EE0FFF1F0590F491E02D0994F894FFCFBC
:100C000030003100320033003400446F6E652E0036
:100C1000506F736974696F6E000500040003000D66
:100C2000000C000B000100020003000400F4014C62
:0A0C300004020001000000006F0242
:00000001FF
